:020000041000EA
:1000000000B5324B212058609868022188439860DF
:10001000D860186158612E4B002199600221596106
:100020000121F02299502B49196001219960352056
:1000300000F044F80222904214D00621196600F024
:1000400034F8196E01211966002018661A6600F04E
:100050002CF8196E196E196E052000F02FF8012189
:100060000842F9D1002199601B49196000215960AB
:100070001A491B48016001219960EB211966A021F2
:10008000196600F012F800219960164914480160C1
:100090000121996001BC002800D000471248134993
:1000A000086003C880F30888084703B5996A0420EC
:1000B0000142FBD001200142F8D103BD02B5186610
:1000C0001866FFF7F2FF186E186E02BD00000240BE
:1000D000000000180000070000035F00212200005C
:1000E000F4000018222000A00001001008ED00E03C
:1000F00000000000000000000000000074B24E7A12
:1001000000200420F7010010CB010010CD010010E9
:10011000C9010010C9010010C9010010C901001077
:10012000C9010010C9010010C9010010CF01001061
:10013000C9010010C9010010D1010010D301001045
:10014000C1010010C1010010C1010010C101001067
:10015000C1010010C1010010C1010010C101001057
:10016000C1010010C1010010C1010010C101001047
:10017000C1010010C1010010C1010010C101001037
:10018000C1010010C1010010C1010010C101001027
:10019000C1010010C1010010C1010010C101001017
:1001A000C1010010C1010010C1010010C101001007
:1001B000C1010010C1010010C1010010C1010010F7
:1001C000EFF30580103800BE00BE00BE00BE00BECA
:1001D00000BE00BEF2EB887184490010A4490010F3
:1001E0003802001090A31AE71E481F49086006C88D
:1001F00081F3088810471D480068002801D019487D
:10020000F3E70DA40ECC002902D000F012F8F9E7B4
:100210001749184A002000E001C19142FCD116495B
:100220008847164988471649884700BEFDE701C937
:1002300001C29A42FBD37047A4490010C0000020BD
:100240006010002044590010000004200000042029
:100250004459001000100420001004200000000089
:10026000704700000000000008ED00E0000000D032
:10027000601000205C1F002085190010D5020010BE
:100280007D190010F8B5C04606480749091A8B10B9
:10029000C90FC91810B5491003D0044B002B00D06A
:1002A000984710BD60100020601000200000000082
:1002B000054B10B5002B03D00449054800E000BFF2
:1002C000FFF7E2FF10BDC04600000000F81D00204F
:1002D0003445001010B501F04DFC044C200001F035
:1002E00097FCFA20800000F0E7FDF7E734450010A6
:1002F0008023DB051868000F7047C0460FB400B5B7
:10030000084883B001F084FC049B002B07D005A9AA
:100310001800019101F018FB034801F079FC01205D
:1003200001F02AFB544500106445001070B58C465E
:100330001600EFF3108472B60F490B68002BFCD047
:10034000BFF35F8F6346DB08C5180722C05C6346B6
:100350001A40012393401A000240034207D1184378
:100360002870BFF35F8F0A6084F3108870BD614608
:100370003000FFF7C3FFC0462C0100D0F8B5CE46D1
:1003800047468C4680B51C00EFF3108872B61C49B6
:100390000B68002BFCD0BFF35F8FA24221D807234C
:1003A000994602E00132944218D349460126114091
:1003B0008E40D308C718C35C1E42F3D110003343EC
:1003C0003B70BFF35F8F00220D4B1A6088F31088DB
:1003D00000280EDBC0BCB946B046F8BD0120404243
:1003E000EFE7BFF35F8F00230B6088F310880120D5
:1003F00040426346002BEDD00898FFF77FFFC046D0
:100400002C0100D0044A1078431CDBB2172B00D912
:10041000102313707047C046980F002000B5054B9D
:1004200083B00100009318221F230348FFF7A6FFA3
:1004300003B000BD68450010881900200021044B5E
:10044000044ABFF35F8F02C39342FAD17047C0469C
:10045000000100D0800100D0084B094A1360094A0E
:100460001360094A1360094A1360094A1360094A74
:100470001360094A1360094A1360704780808080C6
:1004800000E400E004E400E008E400E00CE400E044
:1004900010E400E014E400E018E400E01CE400E0F4
:1004A0001F2318401E3B8340002905D0C021044A69
:1004B0004900535013607047802201498B50FAE77E
:1004C00000E100E001228240034B1B6813405A1EEA
:1004D0009341D8B27047C04600E100E00123834059
:1004E000014A13607047C04600E200E0054B10303F
:1004F0009B688000C358044A00209B1A2F229A420E
:100500004041704700ED00E09C0F002070B50D00E9
:10051000EFF3108672B60F4A1368002BFCD0BFF3BE
:100520005F8F0D4B10309B6884001B590B4A934220
:1005300003D09D4201D000F0DDFF074B9B681D51A9
:10054000BFF35F8FBFF35F8F0022024B1A6086F309
:10055000108870BD240100D000ED00E0C101001042
:10056000F0B5DE4657464E464546E0B5824683B076
:100570008B461700EFF3108872B6604A1368002BA1
:10058000FCD0BFF35F8F00255D4B5D579946002D72
:1005900000DA9AE04A466B005A4C5E19B6000193A5
:1005A000A31900939B791370574B9A6853461033E5
:1005B0009B00D15899460B1B2F2B32D9534B994294
:1005C00000D098E0019B0236ED18514BAD0063530B
:1005D000504BA619043B9B1B4F4A1B055B0D65192D
:1005E00013436B804D4B0121AB80FF23AB715B4606
:1005F000AB60009BEF710B4319004A46424B9B686E
:100600009950BFF35F8FBFF35F8F00223B4B1A609F
:1006100088F3108803B0F0BCBB46B246A946A0469A
:10062000F0BD01200A008243D379B446BB422DD8E5
:100630003B4BB51C190013001B1B5B415943090DB3
:100640008C46334B6519A353324B0099043B5B1B1B
:100650001B05314D5B0D2B4304364B80A619131F30
:100660009B1B1B055B0D1D4363468B715B468B60BB
:100670002C4B8D80CF7113600143BEE75800C0182A
:1006800080002018C679BE4225D902000623D35621
:10069000002BF3DA9A46131D9C4623486346009EBE
:1006A0009571043EF61A36051B4B760D1E43019BD1
:1006B00096805A1953469200A418A3715B46194AB2
:1006C000A0802260E771A36097E700F013FF002588
:1006D0004B465D575EE766469A46131D9C469088DA
:1006E000043640050015A6196044801B00050A4E1B
:1006F000400D3043D2E700F0FDFE63E7240100D057
:10070000551F00209C0F002000ED00E0C1010010EB
:1007100000A1FFFFCC0F002000E0FFFF01BDFFFFA5
:10072000AAAA00000148804701BD0000012303433D
:1007300070B59C46EFF30581EFF3108572B6214A40
:100740001368002BFCD0BFF35F8F1F4B04001F4AC0
:10075000E41A64416243120D1D4C8900A66852B22E
:10076000765866451CD00621595691421CD012215C
:100770005956914222D01E215956914220D02A2109
:1007800059560324914210D0124B19781A70817176
:10079000BFF35F8F00220B4B1A6085F3108870BD8A
:1007A000A3680D4C5C50EFE7002461000919890033
:1007B0005B18FF21997109499980E5E70124F4E765
:1007C0000224F2E7240100D09C0F0020AAAA000016
:1007D00000ED00E0551F0020C101001001BDFFFF2A
:1007E00000B5074B83B001000093002205230548A4
:1007F000FFF7C4FD002801DB1F23181A03B000BD5A
:1008000084450010591F0020024BC918890001605F
:100810007047C0464000003470B5114C114DAC42D9
:100820000FD2FF262368002B0CD0FFF7EBFD010051
:100830002000FFF7E9FFA680BFF35F8F0834AC42CA
:10084000F0D370BDFFF7DEFD01002000FFF7DCFFF5
:100850002671BFF35F8F0834AC42E3D3F1E7C046A3
:10086000581000206010002010B50400FFF7CAFDEA
:1008700001002000FFF7C8FFFF232371BFF35F8F44
:1008800010BDC04610B504000120FFF7C7FD034BA3
:10089000C01880002060BFF35F8F10BD400000349F
:1008A000034BC91889000160BFF35F8F7047C046D2
:1008B000400000340A4B1968EFF3108072B60A68E2
:1008C000002AFCD0BFF35F8F1B68BFF35F8F00224D
:1008D0001A6080F3108840BF002000217047C04696
:1008E000341F0020F0B5DE4657464E464546E0B57B
:1008F00085B0EFF3058303221A40B34B91005F5894
:10090000012393409B4602925A468846AF4B1A6099
:10091000AF4B03935B46AF4843630823FE5E002E54
:1009200037DABB881BB2002B00DBA4E0BB79002BBD
:1009300000D0E5E00823F95E002920DB4B007A694E
:100940005B18DB00D3189D68DC686B1C00D104E1E8
:10095000A04801004144826A0B69AE1A9B1A9E426C
:1009600015D30123026A029883401A420FD0994896
:1009700000F0AAFB8C4202DCCCD18542CAD940BF30
:1009800005B0F0BCBB46B246A946A046F0BD0D611D
:10099000EDE77A69730091469B19DB0099444B4659
:1009A0009C68DD6800F090FB8D42BADC00D1F6E077
:1009B000002D00DADBE04A464B4652691B6992463D
:1009C000039A934200D1CCE04A460821785E5288CF
:1009D0000004514610439847009001910099019AF4
:1009E0000B00134300D1C2E013000A00002B00DB10
:1009F000D9E020002900801A99414B469860D960BF
:100A000000229B5E002B00DA8BE75D007C69EA1810
:100A1000D200A21800949468D268A2468A4200DDEF
:100A20007FE702D1844200D97BE70824A4463B81BA
:100A3000BC44009C00972F006546B4463E0006E08B
:100A40005E00F218D200A2189768D268BA468A42AD
:100A500007DC00D1B4E0F318DB00E518E35E002BFF
:100A6000EEDA66464A46009F13802E80BB881BB292
:100A7000002B00DA5AE73A69EFF3108172B6136877
:100A8000002BFCD0BFF35F8F0123BE885B42BB808D
:100A900036B23B69BFF35F8F00221A6081F3108882
:100AA000002E00DA42E73B0008333A0099467D69A0
:100AB00073009B190824115FDB004846EB180029DE
:100AC00013DB9C680093A446DC6806E0A34240D098
:100AD0000023F95E3800002906DB4F007F18FF0075
:100AE000EF19FB68A342F1DD009B068000201E5E2B
:100AF0001980002EDCDA1700BB79002B00D119E732
:100B00000023BB710823F95E4B1C00D137E73D0081
:100B10000835AC467C6903E084464B1C00D109E7EC
:100B20004B005B18DB00E0180A00E15E43881BB253
:100B3000002BF1DA01256D42EE178560C6600825AD
:100B40007B5F9342E9D0634619803B8903803A81F9
:100B5000E3E7BB686345BBD9C6E7631C00D0F7E693
:100B600005E7534650461B699847002823D14B465A
:100B70001B883A693B81EFF3108372B61168002934
:100B8000FCD0BFF35F8F49467A880A803A697E803D
:100B9000BFF35F8F0021116083F31088C1E68442A8
:100BA00000D805E7BDE60B4800F08EFA009B019CDB
:100BB000C018614121E753460CCB009201930DE729
:100BC000824500D847E74CE7181E00203C700540DE
:100BD000E50800100040054070B52D4C2569002D3A
:100BE00004D00A212B48FFF70FFE70BD2A4E0321C7
:100BF000294800F05FFAE660FFF704FC274B032268
:100C0000C018D02322701B061B6801216370244B7F
:100C10008000A3600F232061022063806369494242
:100C2000A18019800231198647311D83585218312D
:100C30005A5275325C399952183201319952183230
:100C400001319952183201319952083518329D52AA
:100C50000231183299521832013199521832013149
:100C60009952183201319952183201319952183281
:100C7000013199520B4B0C49DC6001303562FFF7B2
:100C800045FC01210320FFF70BFC084B1D60A8E782
:100C9000E40F0020341F00200040054040000034D5
:100CA000FFFF1000181E0020E50800103860054006
:100CB00000487047E40F0020F8B51F0008AB1B7810
:100CC00004001600002B07D100F006FA32003B00AA
:100CD000121A8B41002B51DB2269EFF3108C72B694
:100CE0001368002BFCD0BFF35F8F0223E15E256900
:100CF00000293ADB4B0060695B18DB00C218C35A5D
:100D00006380BFF35F8F00232B608CF31088069BFA
:100D10009660D7601361079B5361538801335B046E
:100D20005B0C181C002B1ED083B2508008041843A3
:100D30002569EFF3108672B62B68002BFCD0BFF349
:100D40005F8FA3881380A1802369BFF35F8F002288
:100D50001A6086F31088237801329A400849E368C4
:100D60005B181A60F8BD0120DEE7BFF35F8F002338
:100D70002B608CF3108801204042F3E70020F1E75C
:100D80003C20000070B582B000920193010002691E
:100D9000EFF3108472B61368002BFCD0BFF35F8FA3
:100DA0000223C85E0D6900283FDB4A694300160034
:100DB0001B18DB00D218F35A4B80BFF35F8F002360
:100DC0002B6084F31088069B1361079B5361009B83
:100DD000019C9360D460538801335B045B0C1D1C41
:100DE000002B20D0ACB20304558023430D69EFF3F0
:100DF000108C72B62C68002CFCD0BFF35F8F8C88EF
:100E0000148088800A69BFF35F8F002010608CF324
:100E100010880A7801309040CA680849521810605A
:100E2000180002B070BD0125DCE7BFF35F8F00231F
:100E30002B6084F31088013BF2E7C0463C200000A1
:100E400010B543890A1493421ADD53009B18426976
:100E5000DB00D3180469EFF3108C72B62268002A05
:100E6000FCD0BFF35F8F5A88090494B2090C8A4200
:100E700008D00369BFF35F8F00221A608CF31088DB
:100E8000002010BD094A22435A8001230269837160
:100E9000BFF35F8F002111608CF310880278044942
:100EA0009340C268012052181360EAE70080FFFFF8
:100EB0003C20000040787047F0B5C64600B582B0CF
:100EC000040000F009F9FA2206000F0020000023B8
:100ED0000021920000F0CCFC8019794104000D1E25
:100EE00002DA01242E4D644206267642F71736199F
:100EF0006F41AF4214D811D000F0EEF832003B0041
:100F0000121A8B41002B15DC002B46D02000290043
:100F100000F0ECF802B080BCB846F0BDA642EBD9B8
:100F20000026002700F0D8F832003B00121A8B414F
:100F3000002BE9DD00F0D0F832003B00121A8B41A3
:100F4000002B0ADB00230193164B32000093164856
:100F50003B00FFF717FF0130D8D000233900B0461F
:100F60009C46124A1248536A994204D8966A4645EA
:100F7000CCD29942CAD10668EFF3108772B63368B3
:100F8000002BFCD0BFF35F8F0368BFF35F8F664613
:100F90001E6087F3108820BFE5E7002AB6D0C9E7B6
:100FA000FFFFFF7FB5080010E40F00200040054060
:100FB000341F0020F0B5CE46474680B504000D0032
:100FC00085B0EFF305868946002E10D03649002003
:100FD0004B6AAB4206D38A6A5B1B591E8B41A24205
:100FE0004041184305B0C0BCB946B046F0BD2F4FD4
:100FF000FB683A7898461800039200F065F8039A67
:10100000131D42469B009B5822001B1A9C462B0036
:10101000121A8B419E4210DC0DD020BF224A0020C4
:10102000536A4B45DED3926A5B1B591E8B41A24229
:1010300040411843D6E79445EFD900F04DF822001F
:101040002B00121A8B41002B1BDB00230193184B42
:101050002200009338002B00FFF794FE002810DDDB
:10106000114B5A6A4A451CD39B6AA34217D301000D
:101070003800FFF7E5FE0C4A0020536A4B45B1D318
:10108000D1E7094A0020536A4B45ABD30020926A4E
:101090005B1BA24240415A1E93411843A2E74A45B6
:1010A000E5D120BFE3E7C04600400540E40F002043
:1010B000B508001010B5024A0248FFF737F910BD15
:1010C000A04500108C1900200300416A0A00986AAC
:1010D000596A8A42FAD17047034B596A0A00986AE2
:1010E000596A9142FAD1704700400540064A536A56
:1010F0009942FCD807D1044B02E05A6A914202D1CE
:101100009A6A9042F9D8704700400540F8B5DE462B
:101110004E4645465746E0B505008B4618000A99ED
:10112000914600F013FB0A9B6C001E026419304BC1
:10113000A400E418636880469E4200D966602F1FB1
:10114000FBB29A46012B2FD9C0238022294FAD0034
:101150009B0179591201E3181A6000291BD14B46F3
:1011600022685B015340E022134080225201A21802
:1011700013605346012B2FD9802380229B01E31853
:1011800012011A60434666607B51F0BCBB46B24612
:10119000A946A046F8BD786900F0D8FA01304300AE
:1011A0001B18033BFDD2DAE75B46012BCCD1C023F1
:1011B00003229B01E3181A60023AA3681A42FCD08A
:1011C0004A46236852015A40E023134080225201CC
:1011D000A218084F1360AD00584603232168414010
:1011E0000B40136001228240A3681A42FCD0C3E77F
:1011F0000080004090190020F0B5D6464F46464684
:10120000440098462418324BA400E41863688A46C8
:101210009146C0B5FF2B02D880235B006360061F98
:10122000F6B2012E2FD9C02380222A4F85009B01C0
:1012300079591201E3181A6000291BD14B46226824
:101240005B015340E022134080225201A218136038
:10125000012E30D9802380229B01E31812011A60ED
:1012600080235B00636043467B51E0BCBA46B146D5
:10127000A846F0BD786900F069FA013043001B18F8
:10128000033BFDD2DAE75346012BCCD1C023032226
:101290009B01E3181A60023AA3681A42FCD04A463E
:1012A000236852015A40E023134080225201A218C1
:1012B000084F1360850050460323216841400B40CE
:1012C000136001228240A3681A42FCD0C2E7C046E4
:1012D0000080004090190020014B8000C0587047EA
:1012E00090190020F0B5C646040000B5234816004A
:1012F00098460D0000F02AFA0100300000F026FAAE
:101300004346069A1B04120313439C4623680600B7
:10131000002B22DB1A4B1B48E218531E9A418023F4
:101320005242120B9B011203D218174B1A60174B33
:101330001A60130001688B43FBD12122144B2560F6
:10134000E318A6601A602268002AFCDA6246E260AE
:1013500008221A6080BCB846F0BD3F2322681340C3
:10136000AB42D7D1A3681B051B0D8342D2D1EE221D
:10137000E368D20213406345CCD1EBE7001BB70012
:101380000040FDBF08C0004000E0004000F0004009
:101390000430000010B580241C4BE4051C600028BC
:1013A0001AD001231A4C18431A4BDC611A4C4440E2
:1013B0001C62596298628021144BC9051960174854
:1013C00017490860E021C9041960002A07D180226A
:1013D000144B12061A6010BD0E4BD861EBE7530197
:1013E0009B1A9B009A18802312015B049A4209D22F
:1013F00013000D490B60074B5A608022094BD20540
:101400001A60E8E7094B1A00F3E7C04600B0054050
:10141000D3C007B0008005402D3FF84FFCFF01000E
:101420000820014000A00540F01D0020FFFFFF0044
:101430008023024A9B000B43D36270470080054023
:10144000002310B50100988A1B8B984710BDC04639
:10145000162310B5010018885B88984710BDC04658
:10146000F8B54746CE4680B50F1E18D014239946CE
:10147000043304000025012698464B46188843464D
:1014800021681B88984701C4431E984101350640D6
:10149000AF42F2D13000C0BCB946B046F8BD01261B
:1014A000F8E7C046002370B504000D00988A05498E
:1014B0001B8B984703000020002C01DB0130A0406B
:1014C0002900984755420000AA23064A1B011360D1
:1014D0008D235B00D3600449044B19605368002BD3
:1014E000FCDA70470040024000B0FA0000600240A1
:1014F0007047C04610B50148FEF700FFC445001014
:1015000070B5074D074EB54209D20024013E761B47
:10151000B608013608CD01349847B442FAD170BDFF
:10152000F04400102C450010054B064A06491A608D
:10153000064A074B1A6010000B689843FBD17047AE
:1015400000E00040BFCDFBFE08C00040FE7F3C0035
:1015500000F00040044BDB6C002B03D18022034BD6
:10156000D2021A607047C046000011504C20115042
:10157000044A054B1A60054A1368DB018033FBD12E
:101580007047C046FFFFFF0100F0004008C0004068
:101590004022034B9A675A671A67DA667047C0465B
:1015A00000F0014010B5FEF749FF10BD70B52849A5
:1015B000284D294E6D1AAC102200302C00D9302253
:1015C0003000920000F0B2F9BC2D3DD823002A3B38
:1015D000224A052B1DD9302075196D07A446001B22
:1015E000EB0F002D03DA611C8C46A1007250C01A6B
:1015F000E3189B004108F318C900C9181A605A6023
:1016000008339942FAD1012303421DD09843604424
:101610000400A300F250631C2F2C15D09B00F25045
:10162000A31C2E2C10D09B00F250E31C2D2C0BD0B1
:101630009B00F250231D2C2C06D09B00F250631D02
:101640002B2C01D09B00F250054B9E6070BDC04614
:1016500000010010C001001000000020C1010010B6
:1016600000ED00E0002310B5294C82B0A367FFF71E
:101670002BFF0122274B1A60636C012BFCD1032244
:10168000254B1A60224A936B012BFCD10133009346
:101690000121224A22480433FFF724FE05230121B9
:1016A0000093204A2048FFF71DFE0022022104205B
:1016B0001E4BFFF7A1FD0022012105201C4BFFF767
:1016C0009BFD0022002107201A4BFFF795FD002209
:1016D00000210820174BFFF78FFD8023DB000093CC
:1016E000002200210920134BFFF710FD0022104BB0
:1016F00000210620FFF780FD0420FFF7EDFD0E49D5
:1017000000F024F801000020FFF792FE02B010BDA7
:10171000008000403CB0004030B00040002F6859CD
:1017200000800240008C864700C00240001BB700CA
:1017300040597307006CDC0240420F00014804214D
:10174000014B18470010002061140010114A936FDC
:101750009B0813D210665166002905D0FFE7FFE70A
:10176000FFE7516F106F704704B5002801D00020CB
:10177000C04302F075FE002104BDC046F0B5146EF2
:10178000556E576F166FFFF7E5FF1466556657677E
:101790001667F0BD000000D010B50148FEF7AEFDA1
:1017A000D0450010132370B51D78012D19D014DD1C
:1017B0001D48FFF74DFE06001C48FFF749FE1C4C74
:1017C00080223100200000F0B1F8022D06D0194827
:1017D000FFF736FE184B186070BD154C174BA3640D
:1017E000F5E7174B124C23606360A360E36023614D
:1017F0006361A361E36123626362A362E3622363C3
:101800006363A363E36323646364A364E3642365A2
:101810006365A365E36523666366A366E366236782
:101820006367A367E367D9E75344000053460000AA
:10183000B01200204C330000301E0020451800106C
:101840009917001007B5604601880A0A0230DF2A9E
:10185000FAD1C9B2820804D3028840880004104338
:1018600000E00068014A5050039007BDB01200200C
:1018700051434343C9188C46110C83B24B4310B4F7
:10188000040C614392B280B2504362431C041B0CAF
:10189000001910BC59411304120CC0185141614485
:1018A0007047000010B50148FEF728FD50450010B4
:1018B000132310B51C781148FFF7CAFD012C0BD07B
:1018C00004DD010080220E4800F030F80D48FFF7DB
:1018D000B7FD0D4B186010BD094C010054222000CB
:1018E00000F024F822002000084980320368002B11
:1018F00000D1016004309042F8D1E7E75346000080
:10190000341E00204C330000301E0020A5180010AB
:1019100001480421014B18471010002061140010E9
:10192000014B1B681847000010100020014B5B683A
:10193000184700001010002010B5002800D110BD7D
:1019400000F01CF9FBE7C04610B5094A0300146813
:1019500084B0002C08D0012200910648524203A90D
:10196000A047012004B010BD00F052F90020F9E7B3
:10197000EC1D00203919001000BEFDE710B5FFF77F
:10198000FBFFC04670B5FFF7BBFD074D074EB542E4
:1019900009D20024013E761BB608013608CD013479
:1019A0009847B442FAD170BD2C4500103445001060
:1019B000030010B5080011001B68984710BDC04611
:1019C000F8B5437D07000D001600002B38D0002A23
:1019D0001ADD0B780A2B18D00020012E09D0012423
:1019E00021006B5C01340A2B1AD0B442F8D1864234
:1019F00003DD311A3B6828189847AD19013D2B7853
:101A00000D3B5A4253413B75F8BD037D002BE3D19A
:101A100002210E483B689847012EEED00120DEE7F8
:101A20006B1E5B5C0D2BE0D0884203DA091A3B6821
:101A300028189847054802213B6898472000D4E7BA
:101A40000368110028009847DEE7C04620470010D1
:101A5000F0B54646D6464F46C0B582B090461C000B
:101A600006000D00FFF738FB00232F4A12184B41E8
:101A7000002B02DA01222D4B52422D4908008A46E2
:101A800002F00EFD81466B1C03D1300002F0A4FC75
:101A90000500002C27D0274F274B1C68002C18D09E
:101AA0004346002B21D1254B984602E02469002CA7
:101AB0000FD02368002BF9D043461B68002B01D0C0
:101AC0009C42F3D120002A003100B8472469002C41
:101AD000EFD14B46002B23D1280002B0E0BCBA4620
:101AE000B146A846F0BD164FD6E7144B984602E023
:101AF0002469002CEDD02368002BF9D043461B68E5
:101B0000002B01D0A342F3D12A0031002000B847B6
:101B10006B460A222000DA71D91D093AB847E7E777
:101B2000504602F095FCD7E740420F00FFFFFF7FD1
:101B300058100020C1190010E0190020E8190020F9
:101B4000B11900100A4A1368002B05D10CE01A00E5
:101B50001B691032002B07D08342F8D1002902D133
:101B600018691060196170470029FCD01060FAE70D
:101B7000E019002010B500F07BFA10BDF0B5CE469C
:101B8000474680B583B06B460600DD1D2870FFF721
:101B9000A3FA0023194A12184B41002B02DA012242
:101BA000174B524217490800894602F079FC164B40
:101BB00080461C68002C14D0144F02E02469002CCD
:101BC0000FD02368002BF9D03B68002B01D09C423A
:101BD000F4D1200001222900FFF7F2FE2469002C35
:101BE000EFD14346002B05D1300003B0C0BCB9464D
:101BF000B046F0BD484602F02BFCF5E740420F002E
:101C0000FFFFFF7F58100020E0190020E819002096
:101C100070B5040002F0E0FB012301000500012281
:101C20002000FFF715FF084B1C68002C06D06368E6
:101C3000002B05D098472469002CF8D1280070BDEE
:101C40002469002CF3D1F9E7E01900207047C04661
:101C50000022014B1A707047561F00204B7900205C
:101C6000FF2B0BD18B79002B08D1CB79012B05D120
:101C7000082A03D9024B8A7809301A707047C04687
:101C8000561F00200120704710B5012913D11249B9
:101C90005379107909781B0203430020994200D040
:101CA00010BD5378012B08D0022BF9D164220021FA
:101CB0000020FFF76FFB0120F2E7D37891781B0239
:101CC0001943480ADB0501D4012040427F238A05DD
:101CD000D20F1940FFF7E6FB561F0020004870475F
:101CE000EC4700109446012310B501290AD152781F
:101CF0000023012A06D162461179527912020A4361
:101D0000072A01D0180010BDA6336146024A01F02F
:101D100063FA0300F6E7C04644470010012303704E
:101D200000487047244700104B780A781B02134381
:101D30008A7810B512041A43CB781B0613439622F7
:101D4000D200934200D010BD002201201100404279
:101D5000FFF7A8FB024B1860024B19607047C046A2
:101D6000801900208419002010B5024B1878FEF766
:101D7000B5FB10BD571F0020154B70B51A68002A1F
:101D800022D0EFF3108172B610680028FCD0BFF3A8
:101D90005F8F00200F4A596010701B68BFF35F8F80
:101DA000186081F31088002400250B4E3078FEF770
:101DB00089FB002804D1002400252900200070BDE3
:101DC0003078FEF78BFBF8E7FA240025A400ECE757
:101DD000101E0020581F0020571F002070B505005E
:101DE00000200E0001F010FB002834D0002001F08C
:101DF00021FB00282FD0FFF76FF90023174A121894
:101E00004B41002B16DB164C200002F049FB00284A
:101E100021D0002001F0F8FA00280FD10120002184
:101E2000404200F00FFD03256D42200002F010FB40
:101E3000280070BD01220B4B5242E4E7002001F064
:101E4000F9FA0028EAD029003200002001F0FCFA5B
:101E5000051EEAD1E7E703256D42E9E740420F009E
:101E6000381F0020FFFFFF7F10B5FFF735F9002373
:101E70000D4A12184B41002B02DA01220B4B524241
:101E80000B4802F00DFB00280CD00120002140423D
:101E900000F0D8FC002001F01BFB0028F5D104481D
:101EA00002F0D6FA10BDC04640420F00FFFFFF7F90
:101EB000381F0020F8B5CE46474680B505000C0017
:101EC000FFF70AF90023344A12184B41002B02DABB
:101ED0000122324B524232490800884602F0E0FAB1
:101EE000002803D1C0BCB946B046F8BD002001F0BF
:101EF0008BFA002848D00026002C41DD294B99465A
:101F000013E0A919002001F01FFB070001200021A8
:101F1000404200F097FC002001F0DAFAFFF7DCF80D
:101F2000204BF61903C3B4422ADD002001F02CFB3C
:101F3000A71B0200B84200DD3A00002AE1D10120CF
:101F40000021404200F07EFC002001F0C1FA002098
:101F500001F05AFA002813D0002001F015FB0028E8
:101F6000E1D1FFF7B9F84B460F000CCB00218446B6
:101F70000D4812184B419F4202D8D4D19445D2D972
:101F8000404602F065FAADE700200021054B03C38F
:101F9000404602F05DFAA5E740420F00FFFFFF7FD9
:101FA000381F0020A812002020A1070030B5002112
:101FB00085B0284802F05CFA00281CD1264B1A682C
:101FC000002A16D0EFF3108172B610680028FCD0FA
:101FD000BFF35F8F01242148596002781B68D2B299
:101FE0000470BFF35F8F0020186081F31088002A0F
:101FF00017D005B030BD01200021404200F022FC86
:10200000002001F017FA0500124802F021FA002D15
:10201000EFD0134B1B68002BEBD0124A1068984787
:10202000E7E7FEF745FE0400FFF756F8FA22002323
:10203000920012184B41002B02DA01220A4B524245
:102040000121029100210191084920000091FEF731
:1020500033FECEE7381F0020101E0020581F00203E
:102060008019002084190020FFFFFF7F791D0010D8
:10207000D02310B51B0684B01C68FEF719FEFEF7CE
:1020800019FFA04202D0002004B010BD284B00214F
:1020900000201B7801F060FD26480368002B44D027
:1020A0000120FEF79DFBFF23234C2449207018409C
:1020B000FEF72CFA20780121FEF7F2F90520FEF751
:1020C00015FA002824D1082200211D48FFF728FC1A
:1020D000FEF7EEFD0400FEF7FFFFFA220023920058
:1020E00012184B41002B02DA0122164B52420121F9
:1020F000029100210191144920000091FEF7DCFDBE
:102100000028C0DB11480121FFF71CFD0120BBE7BF
:102110000120FEF783F901000948FEF7C1FB002208
:1021200005200B49FEF71CFAECE7FEF79DFBB7E72D
:10213000A0490010381F0020571F0020AD1F0010BD
:10214000101E0020FFFFFF7F791D001020100020CF
:10215000691D00100048704788480010004870470B
:102160003448001010B5040016480378002B20D026
:10217000002C06D1144B15484380063BFF3B0380DF
:1021800010BD052C1CD8124BA400E4580F480123A5
:10219000811C013C04E001330A800231142B0CD075
:1021A000E25C002AF7D1C022DBB25B00920013434D
:1021B000E5E7112100F016F8DAE7CA239B00DEE715
:1021C0000020DDE7401F002009040000B8190020AE
:1021D0001C48001010B5024800F0F4F810BDC046CD
:1021E000281E002030B5012900D1BBE0744B013915
:1021F0001A78121114003034092A00DDB5E0047099
:10220000012900D1DAE00F221C782240140030347A
:10221000092A00D9ACE04470022900D1CEE05A78F6
:102220009446121114003034092A00DDA3E08470B2
:10223000032900D1C2E064460F222240140030344A
:10224000092A00D99AE0C470042900D1B6E09A782E
:102250009446121114003034092A00DD91E0047113
:10226000052900D1AAE064460F2222401400303430
:10227000092A00D988E04471062900D19EE0302562
:10228000AC46DC7822119444092A00DD7FE06246E6
:102290008271072900D191E00F22224014003034CE
:1022A000092A00D977E0C471082900D186E03025D9
:1022B000AC461C7922119444092A00DD6EE0624686
:1022C0000272092900D179E00F2222401400303433
:1022D000092A67D844720A2900D16FE03025AC463C
:1022E0005C7922119444092A5FDC624682720B29D0
:1022F00064D00F22224014003034092A59D8C47205
:102300000C295BD03025AC469C7922119444092AD3
:1023100002DD0735AC469444624602730D294DD068
:102320000F22224014003034092A01D93732140018
:1023300044730E2942D0DA7913111C003034092B72
:1023400001DD37331C0084730F2937D00F2313406E
:102350001A003732092B01D830331A00C273102902
:102360002CD010300023037030BD3732140046E704
:10237000373214004FE73732140058E73732140071
:1023800061E7373214006AE73732140073E7073524
:10239000AC4694447BE73732140084E70735AC46FB
:1023A00094448CE73732140094E70735AC469444E4
:1023B0009BE737321400C4720C29A3D14018D1E72F
:1023C000281E002010B588B004000D2200216846A8
:1023D000FFF7A6FA0D22002104A8FFF7A1FA4B236C
:1023E0006A466846137004A90D2202F029F81521E7
:1023F000082220006944FFF799FA08B010BDC046D2
:10240000F8B500F047F90C23194DFF22AB67052002
:102410001849FEF7A5F8184C402200212000FFF7CC
:102420007FFA4027002301262121144A6670278362
:10243000A260136063545F31618445396354104A6C
:1024400010496360E2602787A1620B606362E26209
:1024500002F01EF880239B052E64EB6490230A4A49
:102460000120EA508022094B5202DA64F8BDC046CE
:102470000000115015050020EC19002084001050B8
:10248000000110508000105010D0010000201150A9
:1024900010B501210520FEF703F810BD10B500228C
:1024A0000021024800F016F910BDC0460C1A0020A9
:1024B000044B1970002904D080219023024A89021C
:1024C000D1507047521F0020002011500B785B063E
:1024D00000D070474B78052BFBD18A78014B1A60EE
:1024E000F7E7C04600001150F8B5CE464746C87819
:1024F00080B58007830F1800012B61D08B780A7993
:102500009C464B797F211B0213435B055E0D63469E
:102510001940DC094B001A191F0063462F4D520168
:10252000AA18937001236340537000231683D3705D
:10253000D076B146CA00012C31D0294E92198E01B5
:10254000B446AC446646B2601360002931D0254BD6
:10255000C900C91871604B463F339B09022836D029
:102560009B01214839190268490169180E00CA60A7
:102570001E49D31803608B422BD83B195B01ED1821
:10258000EB7E1B499B064A401343802212061343ED
:102590006A6813600120C0BCB946B046F8BD154E4C
:1025A00092198E01B446AC446646B26213600029AB
:1025B00008D1002364012C1963600F4BE360E9E745
:1025C0000020E8E70A4BC900C9187162C3E7DB01C4
:1025D000C7E7FEF78FFFF268CFE7C046EC1900208F
:1025E0008400105004001050F41D0020FF0F105004
:1025F00000001050800010500001105010B501F084
:1026000047FF10BD7F2010B508404000C9094018A1
:102610001100044A400180181A0000F05BF8012004
:1026200010BDC046EC1900207F23180000B50840FB
:1026300083B00B4204D14B424B41084A01339366AD
:102640008022C9094000064B401840010021C018F3
:10265000120101F03DFF03B000BDC0460020115043
:10266000EC1900207F22130010B50B400A4200D164
:1026700010BDC9095B005B1804485B01C01800234A
:1026800000220349C37001F023FFF1E7EC19002099
:10269000FFF7FFFF80220A4B520410B51A60094B66
:1026A00009491A6010000B689843FBD18022002171
:1026B00052010648FFF734F90922054B5A6710BD4D
:1026C00000E0004000F0004008C000400000105052
:1026D00000001150002310B5C3820133828283763B
:1026E0000161040001F0FCFE002804D08021902349
:1026F000074A8902D150200001F0E2FE002802D0F2
:102700000123237710BD200001F0D2FEFAE7C04676
:10271000002011507047C0467047C04600207047E7
:10272000002070477047C0467047C0467047C0469B
:102730007047C046024B5878431E9841C0B270475C
:1027400098140020024B18784007C00F7047C0460D
:1027500098140020F0B5D6464F464646C0B52E4BDD
:10276000814698461B788A46FF2B4ED100293ED0E1
:10277000002154222948FFF7D3F80022284C294B86
:1027800020001A70FEF770F8274B1C60274C2000C1
:10279000143CFEF777F8200001F0DAFD244B254DBC
:1027A0001C60254B002B04D02800FFF7B7FA234B01
:1027B0001860002400232A78214F204E0FE0336850
:1027C00062019B18002B12D05B68002B0FD098473A
:1027D0002A780134E4B2511C2300A14209DBA24251
:1027E000EDD89B1A5B01DB195B68002BEFD1002051
:1027F0000CE042464B46514648461370FFF700FE38
:102800000028F4D04846FFF743FE0120E0BCBA465A
:10281000B146A846F0BDC0465410002098140020D0
:1028200090140020531F0020EC1400204C100020B6
:10283000F0140020511F00201D1D0010B0130020B7
:1028400044490010F0B5DE4657464E464546E0B5D1
:10285000C64B91B002931B78FF2B00D13BE1C44BD8
:10286000C44E1F00C44B0DAC0193C44B009335689C
:102870006A69EFF3108172B61368002BFCD0BFF3C6
:102880005F8FA9612800210001F098FB6A69AB699C
:10289000BFF35F8F0021116083F31088002800D1FF
:1028A00019E16378082BE2D89B00FB589F466368C8
:1028B000002BDCD0A0689847D9E77F222179AE4D64
:1028C0000A405300EB189846C8098044404601234B
:1028D000303005799D430571057903339D430571BA
:1028E000002A00D1FEE04346A54A1B7D12789342A0
:1028F00000D3EDE0A34A5B011568ED18002D00D16F
:10290000E9E0A36862792078AD69A847AFE79E4BFC
:102910001A78002A00D1DEE01A78013A1A701B7882
:10292000002BA4D10122944D01212B7804201343C4
:102930002B703423EA5C8A43EA54EA5C8243EA540B
:102940000133EA5C8A43EA54EA5C8243EA5423781E
:1029500000209B4600F09AFC602223791A40602AEE
:1029600000D1EEE0402A00D1F4E0DB06DB0E012BC3
:1029700000D111E1022B00D1C6E0002B00D0E0E035
:10298000202A00D11CE2002A00D0DAE06379092B6A
:1029900000D9D6E07D4A9B00D3589F46764D2B78D0
:1029A000DB0700D463E7FFF7C3FE60E7019BDB783A
:1029B000DB0700D45BE76068FFF7AEFE57E76E4DBC
:1029C0002B78DB0700D452E728780007C00FFFF709
:1029D000ADFE4CE72378694999468B46684B6949B7
:1029E00098468A4639001A7847460023B0460025A3
:1029F0004E46894610E053461B686A019B18002B1F
:102A000000D175E0DB68300098473A780135EDB2C7
:102A1000511C2B008D4243DC9542ECD39B1A5B0189
:102A20005B44EFE7237857499946554B8A469846C9
:102A30003100BB464E461A7800250023474689469A
:102A40000FE053461B686A019B18002B54D0DB68CB
:102A5000300098473A780135EDB2511C2B008D4279
:102A600006DC9542EDD39B1A009A5B01D318EEE782
:102A7000019D542200212800FEF752FF1022FF2161
:102A80004348FEF74DFF28002022FF2114304E4618
:102A90005F46FEF745FF00F0EFFBFFF745FEE6E679
:102AA000354D542200212800FEF73AFF1022FF2165
:102AB000281DFEF735FF28002022FF21143046464E
:102AC0004F46FEF72DFF00F0D7FB2379AB70CEE623
:102AD000501C984213DA11B0F0BCBB46B246A9466E
:102AE000A046F0BDA3686279207800F0E3FBBEE663
:102AF00046464F46204DE6E74E465F46CBE71F4D24
:102B00009B1A5B015D19FCE67023217A0B4218D1F8
:102B1000C80982460F330B405B0098461848EB18F3
:102B200053441B7D00789946834268D215485B0167
:102B3000006881469944002A00D163E14B46002B8E
:102B40006AD120780021FFF76FFD80212078FFF700
:102B50006BFD8CE60F4800F099FB012158460EAA48
:102B6000FFF7C0F8002800D081E6EAE75410002003
:102B70009C480010F01400209814002044490010D4
:102B8000511F0020B0130020531F0020C048001028
:102B90009C140020E51C0010237A22890F2BD0D82A
:102BA000FF231340CF4AEB181B791578AB423ED375
:102BB000691C9942C5DB5D1BCB4B6D01ED18686943
:102BC00000F064FB012158466B690EAA9847002863
:102BD00000D04CE66022150023791D401A42B0D186
:102BE00063790A3B012BACD800F050FB63790A2BC8
:102BF00000D199E158460EA900F0D8FA37E6431CF7
:102C00004B4500DAF9E04B461B1A5B019946B64882
:102C10008144002A00D1F5E04B46586900F036FBAC
:102C20004B46012158465B690EAA98479AE7AF4A7E
:102C30005B011568ED18002DC1D182E7A379994693
:102C40006B789945D6D06B78002B00D035E14B4698
:102C50006B70002B00D12DE148460138C0B2FFF760
:102C60007DFA002800D17EE143780793022B00D043
:102C700079E10122C179B1468B11491113400A4013
:102C8000302112015B0113432A78A8468A4313437B
:102C90002B7009239A4682445646BA46C3788278F6
:102CA0001B021343C31805938E4B04938E4B08935A
:102CB0008E4B09938E4B0A93059BB34200D855E186
:102CC000737801220B2B03D13378F278F6187378DE
:102CD000042B00D044E1059B00279B1B9BB206936D
:102CE000049B0B921D78002303931BE0099A7B0140
:102CF0001568ED18002D00D132E1310058462B69DE
:102D0000069A98478446082803D9069A824200D337
:102D100013E1049B01371D78FFB26B1C03979F42A0
:102D200000DD1DE1BD42E1D8039B5D1B089B6D01E9
:102D30005D19E2E76B780CAA023213705846012342
:102D40000EA900F049FA92E5E088030AC0B20F2B01
:102D500000D9F6E667499A008A5897460EA800F00F
:102D60009BFA5846A179FFF799FB02222B7813436F
:102D70002B707CE5E388012B00D0E2E608222B785B
:102D8000584693430EA92B7000F010FA6FE502200D
:102D900029780CAB9A1C8B068908DB0F01400B438A
:102DA0001380584602230EA900F016FA5FE5E38867
:102DB000012B00D0C5E608222B7813432B7019E7AE
:102DC000237A22890F2B00D9BBE6FF231340EB188F
:102DD0001D79444B1B789D4228D2444B6D011B68E2
:102DE0005D19002D00D1ACE6686900F04FFA0121B1
:102DF00058466B690EAA9847B4E6002A00D0A0E6B0
:102E00000023994662790220130003928343012B29
:102E100015D0002A00D094E62B00434453443033AD
:102E20001B790CAA9B07DB0F0232B9E75A1CAA4296
:102E300000DA86E6ED1A2C4B6D01ED18D4E7E38835
:102E4000002B12D1029B1878039B012B23D0FFF794
:102E5000EBFB43460221EB18534430331A790A4303
:102E600001211A711A790A431A714B46002B00D1BD
:102E7000FDE4586900F00AFA4B4601215B690EAA8D
:102E800058469847002000F001FA3523EB5CDB0739
:102E900000D5ECE4AEE6FFF7E5FB43460221EB1874
:102EA000534430331A798A431A711A7903998A4341
:102EB0001A71DAE7FFF738FC9CE600215846FFF765
:102EC000F7FA5846FFF79AFBAB7807490393054B8F
:102ED000049198461A7800230449AA4605911D00DA
:102EE0001BE0C046511F002044490010B0130020D1
:102EF000AC140020E8480010059B6A011B689B1871
:102F0000002B4CD0DB685846984743461A78013569
:102F1000EDB2511C2B008D422DDC9542ECD39B1A57
:102F2000049A5B01D318EDE70CAB9A1C58460123B9
:102F30000EA9157000F050F999E40B9A012A4ED0B1
:102F4000002A3CD00023B07804E00133DBB20F71DB
:102F5000934234D2C118C9B241440D79FF2DF4D047
:102F60004E464546574600236B70EAE54E465746A7
:102F7000FFF7D8FB3EE65546542200212800FEF715
:102F8000CFFC1022FF21281DFEF7CAFC28002022BA
:102F9000FF211430FEF7C4FC039BAB7057E6554687
:102FA000FAE7FEF79BFE021E00D1CAE5D3789178BE
:102FB0001B020B4358460EA900F00EF9D2E56546F8
:102FC0003B002A0031000A9800F06AFE049B039A35
:102FD0001B7876190133934200DB6DE6C0E7174B8F
:102FE00029699942AED1079AACE7FFF797FB021E19
:102FF00000D1A6E5584613780EA900F0EDF8B1E52A
:103000002189FFF7AFF8021EF4D19AE5022B0FD009
:10301000FFF786FB021EC9D193E5FFF79BF8021E5E
:1030200000D18EE5122358460EA900F0D5F899E597
:10303000FFF794F8021EB9D183E5C046853600102B
:10304000F0B54F464646D646C0B50C0016001F00E8
:1030500082B0002A3AD0702398461D4B002599462D
:103060001C4B9A461AE04B461B78200001935346AE
:10307000997800F0DBFD00281CD021000198FFF7B3
:1030800033FA002816D0A378DA09012A19D00A9A4F
:1030900001351370B54219DA2378E4186378052BEB
:1030A00008D1E3789B079B0FBB4203D14246A3782C
:1030B0001A42D8D0002002B0E0BCBA46B146A846B9
:1030C000F0BD0B9A01351370B542E5DB0120F2E744
:1030D0005410002098140020702270B58B780C00DA
:1030E0001A4201D0002070BD064B20001D78064B0F
:1030F000997800F09BFD0028F4D021002800FFF70C
:10310000F3F9F0E754100020981400207F20074BBB
:1031100010B51A680840CB0934334000C018044B7E
:103120001100C01800F03EFD10BDC046EC14002098
:10313000981400207F20074B10B51A680840CB096F
:1031400034334000C018044B1100C01800F052FD89
:1031500010BDC046EC1400209814002070B57F24E8
:10316000C80984460C400F48640004196444303494
:103170002079C00701D5002070BD0B4801250078DB
:1031800084462079284320716046FFF73BFA0028E7
:10319000F2D101222379934323712379033293439C
:1031A0002371E8E7981400205410002070B5094CF2
:1031B0000600082220000D00FEF7B8FB0023802146
:1031C000E360A3602B783000994300220023FFF7CF
:1031D000C5FF70BD78140020F0B5C646244C17001A
:1031E00080460822200000B50D001E00FEF79EFB61
:1031F0000023A760E381EB79AA791B0213431A1C11
:10320000B34200D9321C96B2A281002B0CD0002E02
:1032100015D0002F2AD0402E1AD8237896B27F2BB3
:103220001BD80021134A0EE080212B7800229943FD
:1032300040460023FFF792FF80BCB846F0BD7F23D5
:1032400000222178994333004046FFF787FFF3E7D8
:103250004022237896B27F2BE3D9064C3200390006
:103260002000FEF763FB80212200ECE70020E3E76B
:10327000781400203814002010B5142200210248D0
:10328000FEF74EFB10BDC04678140020014B1861BC
:103290007047C0467814002010B5054C0100082284
:1032A0002000FEF743FB0023A360E36010BDC0468F
:1032B0007814002070B5374C1D0023780600DA0919
:1032C000C9098A4210D00020002D00D070BD210015
:1032D0003000FFF7FBF82369002B03D02200032105
:1032E000300098470120F1E77F2B06D8A06800281E
:1032F000ECD02A002849FEF719FBE289A16852198F
:10330000E38892B24919E281A160934214D03F2D23
:1033100012D9A389981A051C80B2402828D8207891
:10332000ADB27F2826D800219A4230D01A4A2B000D
:103330003000FFF713FFC9E72369002B05D02200F7
:10334000022130009847002808D0802123780022ED
:10335000994330000023FFF701FFB7E70021300059
:10336000FFF762F930008021FFF75EF90120ADE739
:103370004025D4E79A4207D0074C2A002000FEF7E8
:10338000D5FA80212200D2E780210022CFE7002257
:10339000CDE7C046781400203814002070B5040032
:1033A000FFF7C8F9002800D170BDFFF7CBF900285E
:1033B000FAD1C8236343124A2500D418E1780029C2
:1033C000F2D010339E18300000F0E2FD3F28EBD918
:1033D0000020E178FFF79AFE0028E5D0300000F0E9
:1033E000D7FDE1783F2807D9064BEA01D218002023
:1033F0004023FFF7B3FED7E70020FFF79BFED3E79C
:1034000060100020B413002010B50400FFF792F9FB
:10341000002801D1002010BDFFF794F90028F9D150
:10342000C8226243024B01309B181B791840F2E717
:1034300060100020C82310B543430248181800F05C
:1034400089FD10BD70100020F8B5C82343431D4D01
:103450001033EE18802304005B029A4200D31A4A0C
:10346000300092B200F0F8FD0700FFF763F9002882
:1034700001D13800F8BDFFF765F90028F9D1C8235C
:103480006343ED18EB78002BF3D0300000F080FDA3
:103490003F28EED90020E978FFF738FE0028E8D071
:1034A000300000F075FDE9783F2807D9074BE201AD
:1034B000D21800204023FFF751FEDAE70020FFF783
:1034C00039FED6E760100020FFFF0000B413002093
:1034D000F8B50400FFF72EF9002801D10020F8BD4F
:1034E000FFF730F90028F9D1C82325005D432B00F0
:1034F000134E2433F718380000F02CFD0028EDD0CF
:1035000075190020A978FFF701FE0028E6D00D4AC2
:10351000E3019C1821004022380000F09DFDA978AD
:103520000300051E07D022000020FFF717FE002829
:10353000D4D02800D3E70020FFF7FCFDCEE7C0463B
:1035400060100020F413002070B5C82444430C4BD5
:103550000500E41880235B029A4200D3094A200048
:1035600092B200F041FE0600200000F0F3FC3F287C
:1035700001D8300070BD2800FFF7AAFFF9E7C04668
:1035800084100020FFFF0000C82310B54343024809
:10359000181800F0FDFC10BD84100020F0B50025C7
:1035A000184C83B0C82200212000FEF7B9F9164B51
:1035B00021001D70FF236371E1235B02A3602000E3
:1035C00008234022A37338310095073B103000F0E8
:1035D0008BFC2700012321002000260040227831A7
:1035E0000093B837243000F07FFCC0363800FDF778
:1035F0003BF93000FDF738F9E56127622663656322
:1036000003B0F0BD60100020341400200A4B196B89
:103610001A6A00290CD0002A07D00022DA615A6306
:103620001A6300221A62012070475A631A63FAE78C
:10363000002AF8D0D961F4E76010002070B50522A7
:1036400000210D48FEF76CF90C4D2B78DA0707D5F1
:103650000B4C9B070CD50121200000F099FE70BD9A
:103660000548103000F074FE2B78054C9B07F2D40F
:10367000200000F06DFEEEE7601000203414002002
:1036800084100020F0B54B79070083B0022B02D1E3
:103690008B79022B03D00024200003B0F0BD214B16
:1036A0001E009B78002BF6D18B78092433700D789F
:1036B0004D196B78242B07D00CE02B78ED181C19D2
:1036C0006B78A4B2242B05D1A242F6D20020FFF7DA
:1036D00065FEE1E71A00052B15D0042AF6D16B79B7
:1036E0000A2BF3D1104B2E7801930133009338004D
:1036F0000223A919023AFFF7A3FC0028CBD00E340D
:10370000A419A4B2E2E729003800FFF7E5FC00287D
:10371000C1D0AB7873702B781C19ED186A78A4B2FD
:10372000DBE7C046601000206210002060238C465A
:103730001100127870B513400022202B08D1324CB2
:103740004B7926000D7924781B022B439C4201D033
:10375000100070BD4B78222B1CD008D8202B39D0FC
:10376000212BF5D16346012B43D00122F0E7232B17
:10377000EED16346012B42D0032BF6D1234B002B15
:10378000F3D08B78C97800200902194300E000BF0C
:103790000122DDE76346012B31D0032BE5D1012562
:1037A000CB788A781B0213431C001D403300012193
:1037B000243318006940347100F0EAFD144B002BEB
:1037C000D3D0012362081A402900002000E000BF86
:1037D0000122BDE76346012B0BD0032BC5D10D4B56
:1037E000002BC2D0310000200831FEF79DFA0122E3
:1037F000AEE7094A0723FFF7EFFC0122A8E7FFF72E
:10380000D5FC0122A4E7C0466010002000000000A3
:1038100000000000291D001068100020F8B5474680
:10382000CE4680B5344C1F00E37880460D008B42B5
:103830003BD0A37800208B4211D0C0BCB946B04623
:10384000F8BD2E4B002B04D02D4800F099FB00282A
:103850004FD00020FFF7A2FDA378AB420AD1294B3D
:10386000002B02D0002000E000BF0020FFF730FE58
:10387000002801D00120E0E7234C200000F06AFB83
:103880000028F7D1002FF5D0BB06F3D1243C4046E9
:10389000A178FFF73BFC0028ECD000230022404633
:1038A000A178FFF75BFC0120C7E7184E14483100F0
:1038B000BAB200F099FC164B002BC2D06379FF2BF3
:1038C000BFD0002FBDD0BC46B444E14603E0013672
:1038D0004E45B6D0637932789A42F8D1084800F064
:1038E0004FFB0028F3D1064B103B597900E000BF95
:1038F000EDE700E000BFACE7601000200000000032
:10390000701000200000000084100020B41300207C
:10391000000000009322F0B5134C85B00021200078
:103920009200FDF7FDFF23002000802640270F4D69
:103930004D337600FF332930029500930022002397
:10394000002103970196FF3000F0C4F94035201D97
:103950002834002301220021039702950196009448
:1039600000F0B8F905B0F0BD34160020B415002001
:1039700010B5054C200000F0E1F920002538FF3893
:1039800000F0DCF9012010BD5C17002070B5084C78
:10399000002520003130FF30257000F0D9FC2000D8
:1039A0000C3000F0D5FC2A23FF33E554657170BD5F
:1039B00034160020F8B5CE46474680B54B79804690
:1039C0008946FF2B06D12A23374FFF337E79FB5CD4
:1039D0001E4304D00020C0BCB946B046F8BD8B7869
:1039E0000C783B700B790C19002B3CD0A51803E028
:1039F000AC4238D22378E4186378052BF8D1AC4276
:103A000031D221004046FFF767FB0028E2D0A378BF
:103A1000DB09012B2BD0254800F09AFC2A23A27841
:103A2000FF33FA54637922791B0213439421204A0D
:103A30005B055B0D9B185A425341022049007A5C9A
:103A40005B00824313437B5418494046083900F019
:103A5000DFF90028BED023780136E4184B461B79E5
:103A6000F6B2B342C8D84B46E01A80B2B3E7114869
:103A700000F06EFC0F4AA3780C3A537163792179F8
:103A80001B020B435B050A495B0D5B1859424B4116
:103A9000022011795B0081430B430649002008395D
:103AA000137100F07FF9D6E7341600206417002068
:103AB00000FEFFFF4016002070B51D002A23040001
:103AC0001F48FF33C35C8B4216D04079884201D037
:103AD000002070BD1B4B002B04D029040020090CD2
:103AE00000E000BF184B200019001E0000F05AF93A
:103AF00000281DD00120ECE79A235B00C35A002B5D
:103B00000DD1124B002B04D000201149AAB200E0C5
:103B100000BF20000F4900F07BF90120D9E7962370
:103B20005B00C1583130AAB2FF3000F05DFBE8E71E
:103B30002A003100200000F003F90120C9E7C04647
:103B4000341600200000000038160020000000009D
:103B5000B41500205C17002000B5030083B00029D5
:103B600010D00020012B07D80A78002A04D00C4876
:103B7000C2540120012A01D003B000BD1800FEF795
:103B8000E9FDF9E701236A46002001A99380FEF7C9
:103B9000E1FD0028F0D00122014B1A70ECE7C0468D
:103BA0008C14002070B5040023780800DB070E0099
:103BB000DD0F002B16D123785B0701D5280070BDDF
:103BC0000121494200F05CFC2378DB07DD0F002B6C
:103BD0000AD123785B0708D40422237801251343F4
:103BE000237002E00025E9E70025300000F030FCFA
:103BF000E4E7C04670B50D000121040049422800E9
:103C000000F03EFC23785B07DE0F002B04DB28006E
:103C100000F01EFC300070BD2378DB0704D40422C2
:103C2000237893432370F2E70026F0E74379027983
:103C30001B021343C2785B0592075B0D920F022AA9
:103C40001AD0032A0BD00020012A07D102394A4298
:103C50005141104A891899424041C0B27047023917
:103C60004A1E91410C4A4942114080220020D20054
:103C7000891899424041F1E7022904D000204022EE
:103C80009A424041EAE7054A981843425841C0B277
:103C9000E4E7C046FF03000040FCFFFF00FEFFFF1B
:103CA0008446881830B51C00814206D24A78052A1D
:103CB00004D00A7889188842F8D830BD7F228B78E2
:103CC0001A4052006244DB09D4540A7889188842A9
:103CD000ECD8F2E7F0B5C64600B582B0904608AA27
:103CE00020CA040016886A460120978D0A002178B0
:103CF00002408143200011432170320000932900CB
:103D00000123083000F0F0F8002D01D0002E07D17B
:103D100001200A9B6780636002B080BCB846F0BD9A
:103D200025001C352800FCF79FFD42460023002A91
:103D300001D02B0000256361A561E9E701207047F0
:103D4000F8B502240B7807001C4063425C41080070
:103D5000124B64421C40124B08300D001600E41850
:103D600000F0F8F8002807D1002E05D0344203D126
:103D700001242B781C4201D00020F8BD380069785E
:103D8000FFF7C4F90028F7D02B781C42F4D10023A8
:103D9000002238006978FFF7E1F9EEE740FEFFFF07
:103DA000FF01000008239C468C4470B50500604666
:103DB0000C00664600F0CEF8002803D001222378DC
:103DC0001A4201D0002070BD28006178FFF79EF9EB
:103DD0000028F7D062883000616800F03DF90122C8
:103DE0002378134000280CD0002BEBD1030062682D
:103DF000617804002800FFF7B1F90028E2D0200024
:103E0000E1E7002BDED128006178FFF793F9D9E7CD
:103E1000F0B5C64600B58A8906000C000B78002A6A
:103E200006D101321A4240D0002080BCB846F0BD15
:103E30009B0734D42B4B4025984608239C46A4442A
:103E40006046674600F0A4F88542EDD80122237849
:103E50001A42E9D130006178FFF758F90028E3D021
:103E6000380000F095F8012223781340854232D8BB
:103E7000002BD9D1414662880140131C8A4200D9E7
:103E80000B1C9BB200226178002B00D062683000CE
:103E90001C00FFF763F90028C6D02000C5E7FE2309
:103EA00080251B029846AD00C7E74978FFF72EF939
:103EB0000028B9D0012223781A42B5D163880022A4
:103EC0006178002B00D062683000FFF747F90028C6
:103ED000AAD06088A9E7002BA6D130006178FFF74F
:103EE00029F9A1E7C0FF0000F0B5C64600B5984625
:103EF0006B461E7E802304000F0015001B029A42B1
:103F000026D8C068002803D00121494200F0B8FA41
:103F10002069002803D00121494200F0B1FA42464D
:103F20005204F303520C1343E3800023E0686381DF
:103F30002760A5802381002801D000F089FA20693C
:103F4000002801D000F084FA012080BCB846F0BD02
:103F50000020FAE7038941899C4682889BB288B297
:103F60008C4507D31B1A9BB2101C9A4200D9181C0F
:103F700080B270475100091A5B189BB2F4E7C04643
:103F800003894089181A43425841C0B27047C0465D
:103F9000038941899C4682889BB288B28C4507D3AD
:103FA0001B1A9BB200209A4201D9D21A90B27047D4
:103FB0005100091A5B189BB2F4E7C04670B50400C3
:103FC00000690D00002803D00121494200F058FA91
:103FD000238962899C4698B291B2A388944532D3D2
:103FE000421A92B2002A27D0934208D298422FD385
:103FF000C01A81B261818B4203D8C91A89B28B423F
:10400000FBD9E28823685204520C51432800591806
:10401000FDF78CFC618901254A1C92B2A38891426C
:104020000DD900225B00D21A20696281002801D0DC
:1040300000F00EFA280070BD0025628992B25B0084
:104040009A42F1DBEFE75A00521A821892B2C9E79E
:10405000C01881B26181CEE7F0B54646D6464F46DC
:10406000C0B5060000698A46904682B0002803D099
:104070000121494200F004FA31897289B5888BB276
:1040800094B2914255D31F1BBFB2002F4BD0BD42FB
:1040900005D2AB4252D25B199CB22F0074814346C9
:1040A000B8453ED89FB2A54203D8641BA4B2A5422E
:1040B000FBD9F28831685204500C020062432B1B7A
:1040C0009BB28918019002009F4225D943439BB2BD
:1040D0001A0050469946FDF729FC5046019A7D1B6F
:1040E0006419544331684844A2B2FDF71FFC71893A
:1040F000B588CB199BB26A00994216D99B1A3069D0
:104100007381002801D000F0A3F9380002B0E0BCB0
:10411000BA46B146A846F0BD50467A43FDF706FCC4
:10412000E5E73B1CBEE773899BB26A009342E6DB7E
:10413000E4E76F003F1BDF19BFB2A6E75B1B9CB231
:10414000ABE7C046F8B50400C0680F00002803D0F4
:104150000121494200F094F9258920896189A288CA
:10416000ADB283B28EB2884228D39B1B9BB29A42D7
:1041700009D8E679F60906D1E068002801D000F0F8
:1041800067F93000F8BD2B0095421CD39B1A9BB2F7
:104190009342FBD2E28820685204520C5343390008
:1041A000C018FDF7C3FB6B1C9BB2A2889D4216D9B9
:1041B000002352009B1A01262381DDE75100891B51
:1041C0005B189BB2D3E7E28820685204520C534339
:1041D0003900C018FDF7AAFB0135A288ABB2520026
:1041E0009342E8DBE6E7C046F0B54E464546DE467C
:1041F0005746E0B589460500160083B0002A6BD00B
:10420000C068002803D00121494200F039F92F8904
:10421000EA79BBB298466B89AF889BB2D2093DD18F
:10422000984562D27A00D31A43449BB2BB4261D212
:10423000FB1A1A1C9BB2B34200D9321C96B2F31B74
:1042400001934346F3189BB29B46EA884446B8451F
:1042500003D3E41BA4B2BC42FBD252043B1B570C59
:104260003A00624328689BB28018B34256D33A00A2
:1042700049467243FDF75AFBAB885B00D84501D82D
:104280009B4502DB5A46D31A9B465B4637002B817F
:10429000E868002821D000F0DBF81EE0BE422BD2F7
:1042A00098454CD34246D21A92B27900F01B92192B
:1042B00001908A42C5DBDA1992B29346921B92B200
:1042C0009046934240D94346591A8BB29846F31808
:1042D0009BB29B46EA88B9E70027380003B0F0BCE0
:1042E000BB46B246A946A046F0BD4246D31A9BB291
:1042F000BB429DD30027CBE7002FC9D0CC46EA882C
:10430000F61B5104490C714398468C44D91900237B
:1043100089B2E1468B463E00019397E77B439BB20F
:104320001A0049469A46FDF701FB4946019B286859
:10433000E2187A43514492B2FDF7F8FA9CE779000B
:10434000CA1A424492B2B1E79142BCDDC2E7C0460C
:1043500010B50400C068002803D00121494200F0D4
:104360008FF82069002803D00121494200F088F825
:104370000023E06863812381002801D000F068F801
:104380002069002801D000F063F8012010BDC0466C
:1043900070B50400C0680D00002803D00121494217
:1043A00000F06EF82069002803D00121494200F096
:1043B00067F87F21E279EB011140E0681943E17170
:1043C000002801D000F044F82069002801D000F056
:1043D0003FF8012070BDC046030084469B070BD008
:1043E0000300032102E001330B4206D01A78002AB1
:1043F000F9D16246981A7047030019680C4A0D48B3
:104400008A188A4302420FD15968094A04338A182C
:104410008A43024208D15968054A04338A188A43FC
:104420000242F1D000E001331A78002AFBD1E0E724
:10443000FFFEFEFE80808080F8B5C04600000000D0
:1044400001B40248844601BC604700BF010300205C
:1044500001B40248844601BC604700BF2502002029
:1044600001B40248844601BC604700BF110F002020
:1044700001B40248844601BC604700BFC10000206F
:1044800001B40248844601BC604700BF9901002086
:1044900001B40248844601BC604700BF25040020E7
:1044A00001B40248844601BC604700BF01010020FE
:1044B00001B40248844601BC604700BF910C002053
:1044C00001B40248844601BC604700BF050C0020CF
:1044D00001B40248844601BC604700BF410C002083
:1044E00001B40248844601BC604700BFDD0B0020D8
:1044F00029150010551500103D1700101119001056
:10450000A5170010B11800106516001071150010E5
:1045100091150010A515001019080010AD15001018
:10452000D90B0010F114001059040010D52100100F
:04453000B1020010C4
:104534005069636F204F7363696C6C6F73636F7042
:104544006520626F6F74696E672E2E2E0000000066
:104554000A2A2A2A2050414E4943202A2A2A0A009C
:104564000A0000004E6F207370696E6C6F636B738A
:104574002061726520617661696C61626C6500001E
:104584004E6F2075736572204952517320617265B4
:1045940020617661696C61626C65000048617264D7
:1045A4007761726520616C61726D20256420616C95
:1045B400726561647920636C61696D6564000000F3
:1045C4004861726420617373657274006D697373FA
:1045D400696E6720646F75626C652066756E6374BE
:1045E400696F6E0052656C6561736500626F6F740C
:1045F400325F77323571303830000000322E322E7F
:10460400300000007069636F5F7700007069636F4A
:104614005F6F7363696C6C6F73636F706500000028
:104624004D617920323420323032360055534220E5
:10463400737464696E202F207374646F7574000042
:1046440052617370626572727920506900000000D3
:104654005069636F00000000426F6172642043443C
:10466400430000005265736574000000556E686174
:104674006E646C65642049525120307825780A00B4
:10468400657020253032582077617320616C726523
:1046940061647920617661696C61626C6500000017
:1046A40043616E277420636F6E74696E756520783C
:1046B400666572206F6E20696E6163746976652029
:1046C400657020253032580006005250D3F07542F0
:1046D400E845001006005250E182887FF045001042
:1046E40006005250ABB3605300460010060052500F
:1046F400BBFF3CB60846001006005250861C03025D
:1047040010460010060052505422A29D2446001068
:1047140005005250DE65F468445900100D0A00008B
:10472400000000004D1C001000000000511C00108F
:104734005D1C0010891C0010851C00100000000086
:104744000A00000000000306A600080002000200A0
:104754009C001400030057494E55534200000000CA
:104764000000000000008000040001002800440054
:104774006500760069006300650049006E007400FE
:104784006500720066006100630065004700550023
:104794004900440000004E007B00620063003700C3
:1047A400330039003800630031002D003700330036
:1047B400630064002D0034006300620037002D00A4
:1047C40039003800620038002D0039003100330010
:1047D4006100380066006300610037006200660013
:1047E40036007D0000000000050F2100011C1005AB
:1047F40000DF60DDD88945C74C9CD2659D9E648AE4
:104804009F00000306A600010000000006005250AD
:1048140053B4F4A1304600100000000044460010D8
:1048240054460010401F00205C46001068460010EB
:1048340009025400030100807D080B0002020200FB
:1048440000090400000102020004052400200105FF
:104854002401000104240206052406000107058141
:104864000308001009040100020A00000007050201
:104874000240000007058202400000090402000013
:10488400FF00010512011002EF0201408A2E0A0006
:1048940000010102030100006E280010D429001059
:1048A400242A0010AC290010BE2900109C290010F5
:1048B4000E290010BA280010AE2800108E2D00100A
:1048C400742D0010422B0010AE2D0010422B00104E
:1048D4005C2D0010482D0010422B0010342D0010C8
:1048E4003C2C0010422B00101A3000100C30001029
:1048F40000300010422B0010422B0010EA2F001051
:104904000C300010422B0010422B0010422B0010E0
:10491400422B0010422B0010422B0010422B00109F
:10492400A22F00105C0D00205C0D0020A60D0020BD
:10493400C60D00200C0E00201E0E0020540D002079
:10494400000000009D3500100D3600103D360010AB
:10495400853600102D3700101D38001000000000AF
:104964000000000015390010713900108D39001055
:10497400B5390010E51C0010B93A00100000000021
:10498400CC460010D8460010E4460010F046001053
:10499400FC4600100847001014470010104800108F
:1049A40003000068EFF3108C72B60268002AFCD092
:1049B400BFF35F8F04229A56002A0BDB002900D034
:1049C4000A6000201B68BFF35F8F00221A608CF31B
:1049D40010887047D0221206126801201A71F1E77C
:1049E400F0B5C646160000B504001F000268EFF3D8
:1049F400108172B61368002BFCD0BFF35F8F0423C1
:104A0400E3562268002B2BDBBFF35F8F002010607E
:104A140081F31088D02212061278002552B29046F3
:104A24009A420ED1002080BCB846F0BDBFF35F8F20
:104A3400156081F310883000390000F0F5FE00287D
:104A4400F0D12268EFF3108172B61368002BFCD00A
:104A5400BFF35F8F237922687F2BE7D9434602E0B7
:104A6400D0231B061B682371BFF35F8F00231360E1
:104A740081F310880120D6E7F0B5C64600B50F00D3
:104A8400040000F0D9FEFA220E00050000233800CD
:104A94000021920000F0C0FE4019714106000F1E73
:104AA40002DA0126164F7642D0231B061B68002526
:104AB40098460AE0BFF35F8F156081F310883000D9
:104AC400390000F0B1FE002818D12268EFF31081FC
:104AD40072B61368002BFCD0BFF35F8F2379226872
:104AE4007F2BE7D943462371BFF35F8F0023136005
:104AF40081F31088012080BCB846F0BD0020FAE79D
:104B0400FFFFFF7F0268EFF3108172B61368002B7A
:104B1400FCD0BFF35F8FFF2303710368BFF35F8F84
:104B240000221A6081F3108840BF7047084B9C46EE
:104B34001B78002B0BD18023064807495B051A68B4
:104B4400C25004338B42FAD101236246137070477A
:104B5400541F0020801800100001001010B5014BF4
:104B6400984710BD81180020064B5A6802609A6865
:104B74004260DA6882601A69C2605A6902619B699C
:104B840043617047000002400268064B5A60426865
:104B94009A608268DA60C2681A6102695A6142697D
:104BA4009A61704700000240034B1A68C0239B00BF
:104BB4009343024A136070470C8001400C900140FB
:104BC400054B1A6880239B005340C0229200134077
:104BD400024A13607047C0460C8001400C900140AB
:104BE400F0B5D6464F4646460023C0B5182786B0D2
:104BF4001E0081460D00988A3F493B88140098475F
:104C04003B8880463D49B08A984700233C490600CA
:104C1400988A3B8898478246FFF788FF6846FFF7E3
:104C2400A3FFC047B047FFF7CBFF211E1CD00823CA
:104C3400C0209C464005163F6246836A1A401F42C4
:104C440034D0631A002926D1002A0BD1002C0BD0B2
:104C5400C023082202265B059B6A1A401E423DD0EF
:104C6400002AF5D0002C2BD1FFF79EFFD047FFF789
:104C740075FF6846FFF788FF06B0E0BCBA46B14648
:104C8400A846F0BD002C2BD1C0225205966A0822FA
:104C94003240B6072BD50D2B19D9002AF2D1C022E8
:104CA4005205966A08223240B607F4D4002A04D189
:104CB4000B002343002BBFD1D6E70B00002CF9D007
:104CC400036E013C2B70230001350B43F2E74B4686
:104CD4001B780139036601239944E7E70021E5E7DE
:104CE400C0235B051B6E013C2B700135A4E70B0050
:104CF400A242DFD1DCE7C046494600004558000027
:104D0400464300000022154B10B59A60DA601A6120
:104D14005A619A61DA611A625A629A62DA621A63B1
:104D24005A639A63DA631A645A649A64DA641A6591
:104D34005A659A65DA651A665A669A66DA661A6771
:104D44005A679A67DA67F03292000021044800F04B
:104D54007BFD044B044A1A6010BDC046000010508D
:104D64002C1A0020F41D002080011050F0B5474695
:104D7400CE4680B51C4B00249F6D012685B0002FC4
:104D84001BD01A4B98461A4B994604E00134E4B2FE
:104D94007600202C11D03E42F8D043469E65012374
:104DA40065086D00A343ED186D014D44280000F023
:104DB40013FC002806D1B743E8D105B0C0BCB946FE
:104DC400B046F0BDEB8AE0210393002301A8AA7842
:104DD400C900018001210271437100F01DFC28000B
:104DE40000F098FBE7E7C046000011500030115076
:104DF400EC1900209823C64AF0B5D55880232E001C
:104E04009B02102485B01E401D4274D0C14BC24C7D
:104E14009A6AC24B00261A603B23E35C022B00D142
:104E24004BE17B23E35C022B00D1EFE0BB23E35C8B
:104E3400022B00D1F6E0FB23E35C022B00D1FDE062
:104E44003C23FF33E35C022B00D129E17C23FF33B5
:104E5400E35C022B00D10AE1BC23FF33E35C022BA9
:104E640000D13BE1FC23FF33E35C022B00D1F1E0F2
:104E7400AB4BE35C022B00D170E1AA4BE35C022B49
:104E840000D101E1A84BE35C022B00D171E1A74BF7
:104E9400E35C022B00D12EE1A54BE35C022B00D195
:104EA4009CE1A44BE35C022B00D16DE1A24BE35CDB
:104EB400022B00D19DE1A14BE35C022B00D17BE1ED
:104EC400002E08D19E4B1B78002B04D180219D4AD3
:104ED40090338902D150C02269468D4B92009B6C5D
:104EE40080265B058A805B0D012101A8029300F0F6
:104EF40093FB954CB602EB0600D57BE080235B0266
:104F04001D422FD00224844F1E43BB7E002B14D09D
:104F140000F072FC012800D970E0C02200213800A2
:104F2400920100F0FDFA380000F0F4FA00F064FC9D
:104F3400012802D9834B5C661C660123FB70203771
:104F4400012C20D1C0236A46DB0093807F4A02AB48
:104F540003CA03C3012101A800F05EFB8022794B40
:104F640092021A6580235B011D420ED18023DB016E
:104F74001D4221D180231B021D422DD1AE4200D0FF
:104F8400BEE105B0F0BD0124BFE700241E43604B21
:104F94001C60FFF7B7FE80236A465B00938014729F
:104FA400012101A800F038FB8022664B12031A6528
:104FB4008023DB011D42DDD01E4380236A46DB00D3
:104FC4009380012101A800F027FB10225D4B1A6594
:104FD40080231B021D42D1D01E43A0236A46DB005E
:104FE4009380012101A800F017FB8022554B120188
:104FF4001A65C3E7FFF7BAFE26007FE7544B444A1D
:105004001C66536E2340A342FBD186E77833E75CEA
:10501400002F00D10AE70233E25C002A00D00DE140
:105024003E0003E7B833E75C002F00D103E7023307
:10503400E25C002A00D0F9E03E00FCE6F833E75CCD
:10504400002F00D1FCE60233E25C002A00D041E1EB
:105054003E00F5E6F933FF33E75C002F00D107E7A4
:105064000233E25C002A00D02BE13E0000E77933F2
:10507400FF33E75C002F00D1EEE60233E25C002A46
:1050840000D015E13E00E7E6324BE75C002F00D18B
:10509400F8E60233E25C002A00D001E13E00F1E6CA
:1050A4003933FF33E75C002F00D1CFE60233E25CF3
:1050B400002A00D0EBE03E00C8E63833E65C002E60
:1050C40000D1AEE60233E25C002A00D1A9E620005A
:1050D40000222030E25400F04BFAA2E6B933FF3349
:1050E400E75C002F00D1BDE60233E25C002A00D069
:1050F400C4E03E00B6E6184BE75C002F00D1CBE6D7
:105104000233E25C002A00D0B0E03E00C4E6C046B0
:105114000000115000400540EC190020E419002063
:105124003B0200007B020000BB020000FB02000007
:105134003B0300007B030000BB030000FB030000F3
:10514400521F0020003011501000020000001050C7
:10515400002011507A020000FA0200006B4BE75C59
:10516400002F00D189E60233E25C002A76D13E00AA
:1051740083E6674BE75C002F00D188E60233E25CEC
:10518400002A63D13E0082E6624BE75C002F00D127
:105194008CE60233E25C002A00D0A3E05E4BE35CC1
:1051A400022B30D15D4BE35C002B27D15C4BE35CDD
:1051B400022B00D08FE63E005A4BE35C002B00D15B
:1051C4007EE6FF239B00E25C002A00D183E60022F6
:1051D400E2541C3BE01800F0CBF97CE6524BE75C50
:1051E400002F00D15DE60233E25C002A16D13E00B6
:1051F40057E64A4BE35C002B00D15CE6EF239B00AF
:10520400E25C002A75D1464BE35C022B00D062E6D7
:10521400444BE35C002B00D15DE6D2E70022E2546C
:105224001C3BE01800F0A4F93E003AE620000022FE
:10523400A030E2543E0000F09BF9FCE5200000227F
:105244006030E2543E0000F093F9EFE50022E254AE
:105254001C3BE01800F08CF93E0018E60022E254F2
:105264001C3BE01800F084F93E0006E60022E254FC
:105274001C3BE01800F07CF93E000DE62000002203
:10528400A130FF30E2543E0000F072F9EAE520005C
:1052940000222130FF30E2543E0000F069F9D5E5E8
:1052A4000022E2541C3BE01800F062F93E00E9E5FC
:1052B400200000226130FF30E2543E0000F058F933
:1052C400CAE520000022E130FF30E2543E0000F045
:1052D4004FF9CDE520000022E030E2543E0000F01A
:1052E40047F9ADE50022E2541C3BE01800F040F918
:1052F40054E70022E2541C3BE01800F039F982E73D
:1053040031000A48694000F0A7FAC0463A0200009A
:10531400BA0200007A030000BB030000BA030000D5
:10532400FB030000FA0300003A030000704600107B
:10533400F0B58C46838A018B020083B00E1C99421F
:1053440000D91E1CB6B29B1B9CB2D37880211800D6
:10535400451EA841C90031434003084301214B4085
:10536400D37053789482002B32D11169002E2AD045
:105374006346D4689B01E418731E0193062B32D94B
:1053840023000B439B072ED1631A013B022B2AD91E
:105394000023B708BF00CD58E5500433BB42FAD10F
:1053A4009E420ED0019DE418EF1ACD18C95C2170FD
:1053B4000199994205D06B786370012F01D0AB78C5
:1053C400A3701169948A802389191B0211611843FF
:1053D400002C02D18023DB0118436346002B00D04C
:1053E400000403B0F0BD0023CD5CE55401339E42BC
:1053F400FAD1E6E78368F0B51A68002900D0120CE8
:1054040043789205950D002B09D1C38AEB18C3820A
:10541400038BAB4201D9002383822800F0BD0469C9
:10542400002D28D0C36889016F1EBC465E18062F64
:1054340027D901315B18E31A022B22D92300334305
:105444009B071ED10023120E9200F158E150043341
:105454009A42FAD195420DD063469F1AA318B45CC0
:10546400B1181C70944505D04A785A70012F01D0A8
:105474008A789A700469C38A6419EB18C382046138
:10548400C6E70022B35CA35401329542FAD1046901
:10549400F1E7C04610B50400836800211B68FFF7DC
:1054A400A9FF63681B685B0002D5238B834200D08D
:1054B40010BD01212000FFF79DFFF9E7084B1A6C8E
:1054C4000023920703D48278D209012A01D018005C
:1054D4007047C37E023B5A425341DBB2F7E7C046F2
:1054E4000000115010B5FFF7E9FF00280AD0064B61
:1054F400064A9B6A064912685B189B1A0020C6225A
:105504009A42404110BDC04600400540E4190020C5
:10551400E0FCFFFF00238376436103617047C046CC
:1055240010B58368002901D01C682140002A12D0DC
:105534008024E400114322420DD01A6822420CD187
:10554400084A0A401A60084A126C920703D40C23D2
:10555400033BFDD28368196010BD8178034800F0D5
:105564007BF9C046FFFBFFFF00001150844600108A
:10557400436870B50021802504001E68FFF7D8FE3B
:10558400124B6D011A6C0543A37892070ED55B0686
:105594000ED00F4B1E4080239B05334362680021CD
:1055A400136020002A00FFF7BBFF70BDDB09F0D0B9
:1055B400A38A002BEDD001212000FFF7B9FEA02320
:1055C400044ADB05324005431343E7E7000011506A
:1055D400FFFFFFAFFFFFFFDF70B5857E0400002DE6
:1055E40014D0FFF757FFA38A002B01D1280070BD08
:1055F4002000FFF777FF002803D00123002523773D
:10560400F4E72000FFF7B4FF0025EFE781780148B5
:1056140000F022F9A4460010F0B54746CE4680B506
:10562400437805000F0085B0062B07D8694A9B0014
:10563400D3589F46684A137801331370674B1C682C
:105644006269EFF3108172B61368002BFCD0BFF3CC
:105654005F8FA1612000290000F0D6F86269A36978
:10566400BFF35F8F0021116083F31088002804D1F9
:1056740005B0C0BCB946B046F0BD3A006978287898
:1056840000F0F2F8F4E70121554B1A788A431A70B6
:105694001A7801318A431A7000225A701A7802313A
:1056A4008A431A70CAE74F494F4B88464F491E0038
:1056B4001A7800240023894612E04B461B686101D6
:1056C4005B18002B06D0DB69002B03D069682878AF
:1056D400984732780134E4B2511C2300A14217DB0D
:1056E400A242EAD89B1A5B014344ECE73C4B1A788C
:1056F400D207BDD504211A780A431A709EE7384BA5
:105704001A78D207B4D504211A788A431A7095E717
:10571400334A1378904611005B0728D51378042286
:1057240001AC93430B7020000021083200F08CF888
:105734002B78237005236370284B1B6818005A6963
:10574400EFF3108172B61368002BFCD0BFF35F8FA8
:1057540006008161210000F057F87269B369BFF354
:105764005F8F0021116083F3108800282CD14346F9
:10577400DB78DB0700D47BE72B7801AC23700323B1
:1057840063706B686360154B1D686A69EFF3108181
:1057940072B61368002BFCD0BFF35F8FA961280099
:1057A400210000F031F86A69AB69BFF35F8F002113
:1057B400116083F31088002800D159E73A0061781A
:1057C400207800F051F853E73A006178207800F02F
:1057D4004BF8CCE728490010531F0020F014002098
:1057E4009814002044490010511F0020B0130020D9
:1057F4007047C0460000000001B40248844601BC62
:10580400604700BFF102001001B40248844601BCA5
:10581400604700BF4541001001B40248844601BC02
:10582400604700BF7118001001B40248844601BCEF
:10583400604700BFB50F001001B40248844601BCA4
:10584400604700BFD910001001B40248844601BC6F
:10585400604700BF2119001001B40248844601BC0E
:10586400604700BFFD02001001B40248844601BC39
:10587400604700BF15270010100000000000000062
:105884000000010000000000000000000000020011
:105894000000000000000000000003000000000001
:1058A400000000000000FF000000000001B548688F
:1058B40001318E460047704609380149884701BDC9
:1058C4002D07001000000000000000000000000090
:1058D400000000000000000028110020000000006B
:1058E400503300004C3300005433000052330000A6
:1058F4004D5300004D430000533400004334000076
:10590400B51E0010691E0010DD1D0010551D00108D
:105914000000000000010000F414002010000C003E
:105924000000000000000000000000000000000073
:1059340000000000FF000000000000000000000064
:04000005100001E9FD
:00000001FF
