:020000041000EA
:1000000000B5324B212058609868022188439860DF
:10001000D860186158612E4B002199600221596106
:100020000121F02299502B49196001219960352056
:1000300000F044F80222904214D00621196600F024
:1000400034F8196E01211966002018661A6600F04E
:100050002CF8196E196E196E052000F02FF8012189
:100060000842F9D1002199601B49196000215960AB
:100070001A491B48016001219960EB211966A021F2
:10008000196600F012F800219960164914480160C1
:100090000121996001BC002800D000471248134993
:1000A000086003C880F30888084703B5996A0420EC
:1000B0000142FBD001200142F8D103BD02B5186610
:1000C0001866FFF7F2FF186E186E02BD00000240BE
:1000D000000000180000070000035F00212200005C
:1000E000F4000018222000A00001001008ED00E03C
:1000F00000000000000000000000000074B24E7A12
:1001000000200420F7010010CB010010CD010010E9
:10011000C9010010C9010010C9010010C901001077
:10012000C9010010C9010010C9010010CF01001061
:10013000C9010010C9010010D1010010D301001045
:10014000C1010010C1010010C1010010C101001067
:10015000C1010010C1010010C1010010C101001057
:10016000C1010010C1010010C1010010C101001047
:10017000C1010010C1010010C1010010C101001037
:10018000C1010010C1010010C1010010C101001027
:10019000C1010010C1010010C1010010C101001017
:1001A000C1010010C1010010C1010010C101001007
:1001B000C1010010C1010010C1010010C1010010F7
:1001C000EFF30580103800BE00BE00BE00BE00BECA
:1001D00000BE00BEF2EB8871F866001018670010D0
:1001E0003802001090A31AE71E481F49086006C88D
:1001F00081F3088810471D480068002801D019487D
:10020000F3E70DA40ECC002902D000F012F8F9E7B4
:100210001749184A002000E001C19142FCD116495B
:100220008847164988471649884700BEFDE701C937
:1002300001C29A42FBD3704718670010C00000202B
:1002400080160020D87C001000000420000004204C
:10025000D87C0010001004200010042000000000D2
:10026000704700000000000008ED00E0000000D032
:1002700080160020002F0020CD1C001085030010E8
:10028000C51C0010F8B5C04606480749091A8B106E
:10029000C90FC91810B5491003D0044B002B00D06A
:1002A000984710BD80160020801600200000000036
:1002B000054B10B5002B03D00449054800E000BFF2
:1002C000FFF7E2FF10BDC0460000000098250020A7
:1002D0009C6200101F4B10B51A681F4B0120534041
:1002E0001E4A1F4C13401F4A1360F0221E4B52023D
:1002F0001A6104F077FA1D4A1D49C30213401943DD
:10030000A0238201DB05D3181C601A4C5C6080249A
:10031000E4009C60D9600821174B19608021174BBD
:100320004904D21813680B42FCD10822144B0E4921
:100330001A60F8320B681342FCD08B68134206D166
:100340008021094B4900DA689A680A42FBD004F020
:1003500041FA10BD08C00440090000010F00000F61
:100360000CC0044008D0044000C00440FF7F00FFE0
:1003700025001200D025002000E0044010000050AD
:1003800000F00440F0B583B001F0D6FDFA20C000C3
:1003900000F08CFE04F002FA1F211A2000F046F84B
:1003A000002200211A2000F059F800211A2000F044
:1003B00067F8E022174BD2011B68174C1340174A0D
:1003C000174F184E184D1360FFF784FF6B469E8041
:1003D0002368012202219B6801A805F0F5F880221C
:1003E0002368022138009B68D20005F0EDF86B46C7
:1003F0006846DD802368012202219B68063005F0F3
:10040000E3F82368986804F02BFF642000F04EFEA8
:10041000DAE7C04600C004407414002000D0044055
:10042000D0250020CDABFFFFBADCFFFF10B5402484
:10043000074A83009A181268C0005440C022224024
:10044000044C1B191A60044BC018416010BDC04613
:1004500004C0014004D0014000400140064B800030
:10046000C3181B68C90092000A435A400C2313406A
:10047000024A80180360704704C0014004D0014064
:100480008000002904D0054BC0184023036070474A
:10049000034BC01840230360F9E7C04604E0014065
:1004A00004F001408023DB051868000F7047C04648
:1004B0000FB400B5084883B001F08CFD049B002BFD
:1004C00007D005A91800019101F096FB034801F03F
:1004D00081FD012001F0A8FBA0620010B0620010B5
:1004E00070B58C461600EFF3108472B60F490B6896
:1004F000002BFCD0BFF35F8F6346DB08C5180722D3
:10050000C05C63461A40012393401A000240034234
:1005100007D118432870BFF35F8F0A6084F31088F7
:1005200070BD61463000FFF7C3FFC0462C0100D00C
:10053000F8B5CE4647468C4680B51C00EFF31088D0
:1005400072B61C490B68002BFCD0BFF35F8FA24230
:1005500021D80723994602E00132944218D3494634
:10056000012611408E40D308C718C35C1E42F3D148
:10057000100033433B70BFF35F8F00220D4B1A60B6
:1005800088F3108800280EDBC0BCB946B046F8BD21
:1005900001204042EFE7BFF35F8F00230B6088F339
:1005A0001088012040426346002BEDD00898FFF7E9
:1005B0007FFFC0462C0100D010B584460A00EFF33F
:1005C000108472B60B490B68002BFCD0BFF35F8F11
:1005D0000723D008134001229A4063461B5C9343D3
:1005E00062461354BFF35F8F00230B6084F31088BF
:1005F00010BDC0462C0100D0044A1078431CDBB269
:10060000172B00D9102313707047C046980F002095
:1006100000B5054B83B00100009318221F23034847
:10062000FFF786FF03B000BDB46200102021002058
:100630000021044B044ABFF35F8F02C39342FAD1F7
:100640007047C046000100D0800100D0084B094A25
:100650001360094A1360094A1360094A1360094A82
:100660001360094A1360094A1360094A136070470E
:100670008080808000E400E004E400E008E400E022
:100680000CE400E010E400E014E400E018E400E012
:100690001CE400E01F2318401E3B8340002905D0C6
:1006A000C021044A49005350136070478022014919
:1006B0008B50FAE700E100E001228240034B1B6807
:1006C00013405A1E9341D8B27047C04600E100E083
:1006D00001238340014A13607047C04600E200E0F6
:1006E000054B10309B688000C358044A00209B1AB9
:1006F0002F229A424041704700ED00E09C0F0020FD
:1007000070B50D00EFF3108672B60F4A1368002B18
:10071000FCD0BFF35F8F0D4B10309B6884001B59DA
:100720000B4A934203D09D4201D001F013F8074BCE
:100730009B681D51BFF35F8FBFF35F8F0022024B99
:100740001A6086F3108870BD240100D000ED00E02F
:10075000C1010010F0B5DE4657464E464546E0B5AD
:10076000824683B08B461700EFF3108872B6604A5A
:100770001368002BFCD0BFF35F8F00255D4B5D57E6
:100780009946002D00DA9AE04A466B005A4C5E19F1
:10079000B6000193A31900939B791370574B9A6885
:1007A000534610339B00D15899460B1B2F2B32D93F
:1007B000534B994200D098E0019B0236ED18514B03
:1007C000AD006353504BA619043B9B1B4F4A1B05BE
:1007D0005B0D651913436B804D4B0121AB80FF23EB
:1007E000AB715B46AB60009BEF710B4319004A464F
:1007F000424B9B689950BFF35F8FBFF35F8F00221E
:100800003B4B1A6088F3108803B0F0BCBB46B2467D
:10081000A946A046F0BD01200A008243D379B44620
:10082000BB422DD83B4BB51C190013001B1B5B4171
:100830005943090D8C46334B6519A353324B00992C
:10084000043B5B1B1B05314D5B0D2B4304364B807A
:10085000A619131F9B1B1B055B0D1D4363468B7164
:100860005B468B602C4B8D80CF7113600143BEE7DC
:100870005800C01880002018C679BE4225D9020051
:100880000623D356002BF3DA9A46131D9C462348C1
:100890006346009E9571043EF61A36051B4B760D95
:1008A0001E43019B96805A1953469200A418A371C7
:1008B0005B46194AA0802260E771A36097E700F0C9
:1008C00049FF00254B465D575EE766469A46131D75
:1008D0009C469088043640050015A6196044801B8C
:1008E00000050A4E400D3043D2E700F033FF63E7C6
:1008F000240100D0F82E00209C0F002000ED00E025
:10090000C101001000A1FFFFCC0F002000E0FFFF9D
:1009100001BDFFFFAAAA00000148804701BD0000F9
:100920000123034370B59C46EFF30581EFF3108577
:1009300072B6214A1368002BFCD0BFF35F8F1F4BA8
:1009400004001F4AE41A64416243120D1D4C8900E1
:10095000A66852B2765866451CD006215956914277
:100960001CD012215956914222D01E215956914233
:1009700020D02A2159560324914210D0124B1978C5
:100980001A708171BFF35F8F00220B4B1A6085F3E1
:10099000108870BDA3680D4C5C50EFE70024610027
:1009A000091989005B18FF21997109499980E5E7C8
:1009B0000124F4E70224F2E7240100D09C0F002078
:1009C000AAAA000000ED00E0F82E0020C1010010EE
:1009D00001BDFFFF00B5074B83B00100009300226B
:1009E00005230548FFF7A4FD002801DB1F23181A83
:1009F00003B000BDD0620010FC2E0020024BC918CD
:100A0000890001607047C0464000003470B5114C49
:100A1000114DAC420FD2FF262368002B0CD0FFF7FC
:100A2000EBFD01002000FFF7E9FFA680BFF35F8F19
:100A30000834AC42F0D370BDFFF7DEFD01002000AA
:100A4000FFF7DCFF2671BFF35F8F0834AC42E3D3BE
:100A5000F1E7C046781600208016002010B504008B
:100A6000FFF7CAFD01002000FFF7C8FFFF23237135
:100A7000BFF35F8F10BDC04610B504000120FFF723
:100A8000C7FD034BC01880002060BFF35F8F10BD0F
:100A900040000034034BC91889000160BFF35F8F29
:100AA0007047C046400000340A4B1968EFF31080CD
:100AB00072B60A68002AFCD0BFF35F8F1B68BFF3D1
:100AC0005F8F00221A6080F3108840BF0020002151
:100AD0007047C046D42E0020F0B5DE4657464E463D
:100AE0004546E0B585B0EFF3058303221A40B34BCA
:100AF00091005F58012393409B4602925A468846D4
:100B0000AF4B1A60AF4B03935B46AF484363082378
:100B1000FE5E002E37DABB881BB2002B00DBA4E0A0
:100B2000BB79002B00D0E5E00823F95E002920DB2B
:100B30004B007A695B18DB00D3189D68DC686B1C7E
:100B400000D104E1A04801004144826A0B69AE1A59
:100B50009B1A9E4215D30123026A029883401A42CF
:100B60000FD0994800F0AAFB8C4202DCCCD1854220
:100B7000CAD940BF05B0F0BCBB46B246A946A046A4
:100B8000F0BD0D61EDE77A69730091469B19DB00BA
:100B900099444B469C68DD6800F090FB8D42BADCBE
:100BA00000D1F6E0002D00DADBE04A464B46526900
:100BB0001B699246039A934200D1CCE04A46082131
:100BC000785E528800045146104398470090019186
:100BD0000099019A0B00134300D1C2E013000A00F0
:100BE000002B00DBD9E020002900801A99414B46F8
:100BF0009860D96000229B5E002B00DA8BE75D00D5
:100C00007C69EA18D200A21800949468D268A246BF
:100C10008A4200DD7FE702D1844200D97BE70824C5
:100C2000A4463B81BC44009C00972F006546B44617
:100C30003E0006E05E00F218D200A2189768D26863
:100C4000BA468A4207DC00D1B4E0F318DB00E518AD
:100C5000E35E002BEEDA66464A46009F13802E8044
:100C6000BB881BB2002B00DA5AE73A69EFF3108118
:100C700072B61368002BFCD0BFF35F8F0123BE88D0
:100C80005B42BB8036B23B69BFF35F8F00221A60C4
:100C900081F31088002E00DA42E73B0008333A0067
:100CA00099467D6973009B190824115FDB00484653
:100CB000EB18002913DB9C680093A446DC6806E06F
:100CC000A34240D00023F95E3800002906DB4F0024
:100CD0007F18FF00EF19FB68A342F1DD009B06803F
:100CE00000201E5E1980002EDCDA1700BB79002B75
:100CF00000D119E70023BB710823F95E4B1C00D11A
:100D000037E73D000835AC467C6903E084464B1C60
:100D100000D109E74B005B18DB00E0180A00E15E38
:100D200043881BB2002BF1DA01256D42EE17856076
:100D3000C66008257B5F9342E9D0634619803B89F2
:100D400003803A81E3E7BB686345BBD9C6E7631C10
:100D500000D0F7E605E7534650461B699847002840
:100D600023D14B461B883A693B81EFF3108372B65F
:100D700011680029FCD0BFF35F8F49467A880A804A
:100D80003A697E80BFF35F8F0021116083F3108882
:100D9000C1E6844200D805E7BDE60B4800F08EFAB4
:100DA000009B019CC018614121E753460CCB009287
:100DB00001930DE7824500D847E74CE7B8250020AE
:100DC0003C700540D90A00100040054070B52D4C1C
:100DD0002569002D04D00A212B48FFF70FFE70BDB6
:100DE0002A4E0321294800F05FFAE660FFF704FC71
:100DF000274B0322C018D02322701B061B68012139
:100E00006370244B8000A3600F2320610220638065
:100E100063694942A18019800231198647311D83D7
:100E2000585218315A5275325C3999521832013180
:100E300099521832013199521832013199520835BC
:100E400018329D520231183299521832013199529A
:100E50001832013199521832013199521832013148
:100E600099521832013199520B4B0C49DC60013018
:100E70003562FFF745FC01210320FFF70BFC084B0F
:100E80001D60A8E7E40F0020D42E0020004005409C
:100E900040000034FFFF1000B8250020D90A0010E0
:100EA0003860054000487047E40F0020F8B51F0087
:100EB00008AB1B7804001600002B07D100F006FADF
:100EC00032003B00121A8B41002B51DB2269EFF3F9
:100ED000108C72B61368002BFCD0BFF35F8F022317
:100EE000E15E256900293ADB4B0060695B18DB0095
:100EF000C218C35A6380BFF35F8F00232B608CF34B
:100F00001088069B9660D7601361079B53615388D6
:100F100001335B045B0C181C002B1ED083B2508085
:100F2000080418432569EFF3108672B62B68002B6E
:100F3000FCD0BFF35F8FA3881380A1802369BFF328
:100F40005F8F00221A6086F31088237801329A405E
:100F50000849E3685B181A60F8BD0120DEE7BFF3BB
:100F60005F8F00232B608CF3108801204042F3E751
:100F70000020F1E73C20000070B582B000920193A0
:100F800001000269EFF3108472B61368002BFCD0E5
:100F9000BFF35F8F0223C85E0D6900283FDB4A69FB
:100FA000430016001B18DB00D218F35A4B80BFF326
:100FB0005F8F00232B6084F31088069B1361079BCF
:100FC0005361009B019C9360D460538801335B04A0
:100FD0005B0C1D1C002B20D0ACB2030455802343B6
:100FE0000D69EFF3108C72B62C68002CFCD0BFF3A7
:100FF0005F8F8C88148088800A69BFF35F8F002020
:1010000010608CF310880A7801309040CA68084953
:1010100052181060180002B070BD0125DCE7BFF364
:101020005F8F00232B6084F31088013BF2E7C046FA
:101030003C20000010B543890A1493421ADD530086
:101040009B184269DB00D3180469EFF3108C72B669
:101050002268002AFCD0BFF35F8F5A88090494B23B
:10106000090C8A4208D00369BFF35F8F00221A601F
:101070008CF31088002010BD094A22435A800123B6
:1010800002698371BFF35F8F002111608CF31088B8
:10109000027804499340C268012052181360EAE7BD
:1010A0000080FFFF3C20000040787047F0B5C64646
:1010B00000B582B0040000F009F9FA2206000F0022
:1010C000200000230021920000F02AFD80197941C0
:1010D00004000D1E02DA01242E4D644206267642DB
:1010E000F71736196F41AF4214D811D000F0EEF85F
:1010F00032003B00121A8B41002B15DC002B46D02E
:101100002000290000F022F902B080BCB846F0BDF2
:10111000A642EBD90026002700F0D8F832003B00A9
:10112000121A8B41002BE9DD00F0D0F832003B00B1
:10113000121A8B41002B0ADB00230193164B32005D
:10114000009316483B00FFF717FF0130D8D000236B
:101150003900B0469C46124A1248536A994204D854
:10116000966A4645CCD29942CAD10668EFF31087F9
:1011700072B63368002BFCD0BFF35F8F0368BFF3F8
:101180005F8F66461E6087F3108820BFE5E7002A60
:10119000B6D0C9E7FFFFFF7FA90A0010E40F0020C7
:1011A00000400540D42E0020F0B5CE46474680B51D
:1011B00004000D0085B0EFF305868946002E10D09F
:1011C000364900204B6AAB4206D38A6A5B1B591E24
:1011D0008B41A2424041184305B0C0BCB946B0465D
:1011E000F0BD2F4FFB683A7898461800039200F044
:1011F00065F8039A131D42469B009B5822001B1A58
:101200009C462B00121A8B419E4210DC0DD020BF51
:10121000224A0020536A4B45DED3926A5B1B591E5B
:101220008B41A24240411843D6E79445EFD900F0E4
:101230004DF822002B00121A8B41002B1BDB0023E0
:101240000193184B2200009338002B00FFF794FE07
:10125000002810DD114B5A6A4A451CD39B6AA342F1
:1012600017D301003800FFF7E5FE0C4A0020536A4F
:101270004B45B1D3D1E7094A0020536A4B45ABD364
:101280000020926A5B1BA24240415A1E93411843C0
:10129000A2E74A45E5D120BFE3E7C046004005404C
:1012A000E40F0020A90A001010B5024A0248FFF717
:1012B00017F910BDEC620010242100200300416AE0
:1012C0000A00986A596A8A42FAD17047034B596AF0
:1012D0000A00986A596A9142FAD170470040054065
:1012E00070B505000E00184A536A1900946A536AD3
:1012F0008B42FAD1200019002C00350024184D41F2
:10130000AB4216D813D0104B2A005B6A9D4203D91A
:101310000D494B6A9342FCD3934207D10A4A02E03B
:10132000516A994202D1916AA142F9D370BDA0429B
:10133000E9D9054B5B6A1C005A1CEFD0012201243D
:101340006442E5175242E3E700400540064A536A0B
:101350009942FCD807D1044B02E05A6A914202D16B
:101360009A6A9042F9D8704700400540F8B5DE46C9
:101370004E4645465746E0B505008B4618000A998B
:10138000914600F03BFB0A9B6C001E026419304B37
:10139000A400E418636880469E4200D966602F1F4F
:1013A000FBB29A46012B2FD9C0238022294FAD00D2
:1013B0009B0179591201E3181A6000291BD14B4691
:1013C00022685B015340E022134080225201A218A0
:1013D00013605346012B2FD9802380229B01E318F1
:1013E00012011A60434666607B51F0BCBB46B246B0
:1013F000A946A046F8BD786900F000FB0130430023
:101400001B18033BFDD2DAE75B46012BCCD1C0238E
:1014100003229B01E3181A60023AA3681A42FCD027
:101420004A46236852015A40E02313408022520169
:10143000A218084F1360AD005846032321684140AD
:101440000B40136001228240A3681A42FCD0C3E71C
:101450000080004028210020F0B5D6464F46464681
:10146000440098462418324BA400E41863688A4666
:101470009146C0B5FF2B02D880235B006360061F36
:10148000F6B2012E2FD9C02380222A4F85009B015E
:1014900079591201E3181A6000291BD14B462268C2
:1014A0005B015340E022134080225201A2181360D6
:1014B000012E30D9802380229B01E31812011A608B
:1014C00080235B00636043467B51E0BCBA46B14673
:1014D000A846F0BD786900F091FA013043001B186E
:1014E000033BFDD2DAE75346012BCCD1C0230322C4
:1014F0009B01E3181A60023AA3681A42FCD04A46DC
:10150000236852015A40E023134080225201A2185E
:10151000084F1360850050460323216841400B406B
:10152000136001228240A3681A42FCD0C2E7C04681
:101530000080004028210020014B8000C0587047E7
:1015400028210020F0B5C646040000B52348160047
:1015500098460D0000F052FA0100300000F04EFAFB
:101560004346069A1B04120313439C462368060055
:10157000002B22DB1A4B1B48E218531E9A41802392
:101580005242120B9B011203D218174B1A60174BD1
:101590001A60130001688B43FBD12122144B256094
:1015A000E318A6601A602268002AFCDA6246E2604C
:1015B00008221A6080BCB846F0BD3F232268134061
:1015C000AB42D7D1A3681B051B0D8342D2D1EE22BB
:1015D000E368D20213406345CCD1EBE7001BB700B0
:1015E0000040FDBF08C0004000E0004000F00040A7
:1015F0000430000010B580241C4BE4051C6000285A
:101600001AD001231A4C18431A4BDC611A4C44407F
:101610001C62596298628021144BC90519601748F1
:1016200017490860E021C9041960002A07D1802207
:10163000144B12061A6010BD0E4BD861EBE7530134
:101640009B1A9B009A18802312015B049A4209D2CC
:1016500013000D490B60074B5A608022094BD205DD
:101660001A60E8E7094B1A00F3E7C04600B00540EE
:10167000D3C007B0008005402D3FF84FFCFF0100AC
:101680000820014000A0054090250020FFFFFF003A
:101690008023024A9B000B43D362704700800540C1
:1016A000002310B50100988A1B8B984710BDC046D7
:1016B000162310B5010018885B88984710BDC046F6
:1016C000F8B54746CE4680B50F1E18D0142399466C
:1016D000043304000025012698464B4618884346EB
:1016E00021681B88984701C4431E98410135064074
:1016F000AF42F2D13000C0BCB946B046F8BD0126B9
:10170000F8E7C046002370B504000D00988A05492B
:101710001B8B984703000020002C01DB0130A04008
:101720002900984755420000AA23064A1B0113606E
:101730008D235B00D3600449044B19605368002B70
:10174000FCDA70470040024000B0FA00006002403E
:101750007047C04610B50148FEF7AAFE106300109E
:1017600070B5074D074EB54209D20024013E761BE5
:10177000B608013608CD01349847B442FAD170BD9D
:101780005862001094620010054B064A06491A6020
:10179000064A074B1A6010000B689843FBD170474C
:1017A00000E00040BFCDFBFE08C00040FE7F3C00D3
:1017B00000F00040044BDB6C002B03D18022034B74
:1017C000D2021A607047C046000011504C201150E0
:1017D000044A054B1A60054A1368DB018033FBD1CC
:1017E0007047C046FFFFFF0100F0004008C0004006
:1017F0004022034B9A675A671A67DA667047C046F9
:1018000000F0014010B5FEF713FF10BD70B5284978
:10181000284D294E6D1AAC102200302C00D93022F0
:101820003000920000F0DAF9BC2D3DD823002A3BAD
:10183000224A052B1DD9302075196D07A446001BBF
:10184000EB0F002D03DA611C8C46A1007250C01A08
:10185000E3189B004108F318C900C9181A605A60C0
:1018600008339942FAD1012303421DD098436044C2
:101870000400A300F250631C2F2C15D09B00F250E3
:10188000A31C2E2C10D09B00F250E31C2D2C0BD04F
:101890009B00F250231D2C2C06D09B00F250631DA0
:1018A0002B2C01D09B00F250054B9E6070BDC046B2
:1018B00000010010C001001000000020C101001054
:1018C00000ED00E0002310B5294C82B0A367FFF7BC
:1018D0002BFF0122274B1A60636C012BFCD10322E2
:1018E000254B1A60224A936B012BFCD101330093E4
:1018F0000121224A22480433FFF724FE0523012157
:101900000093204A2048FFF71DFE002202210420F8
:101910001E4BFFF7A1FD0022012105201C4BFFF704
:101920009BFD0022002107201A4BFFF795FD0022A6
:1019300000210820174BFFF78FFD8023DB00009369
:10194000002200210920134BFFF710FD0022104B4D
:1019500000210620FFF780FD0420FFF7EDFD0E4972
:1019600000F04CF801000020FFF792FE02B010BD1D
:10197000008000403CB0004030B00040002F68596B
:1019800000800240008C864700C00240001BB70068
:1019900040597307006CDC0240420F0001480421EB
:1019A000014B184700100020C1160010124A936F17
:1019B0009B0815D29066D166002905D0FFE7FFE7A6
:1019C000FFE7516F106F704704B580210906C217F9
:1019D0005140002800D0C84304F0F6FB002104BDAC
:1019E000F0B5146E556E576F166FFFF7E3FF146670
:1019F000556657671667F0BD000000D0114A936F17
:101A00009B0813D210665166002905D0FFE7FFE757
:101A1000FFE7516F106F704704B5002801D0002018
:101A2000C04304F0D1FB002104BDC046F0B5146EE4
:101A3000556E576F166FFFF7E5FF146655665767CB
:101A40001667F0BD000000D010B50148FEF730FD6C
:101A50001C630010132370B51D78012D19D014DDFF
:101A60001D48FFF725FE06001C48FFF721FE1C4C11
:101A700080223100200000F0B1F8022D06D0194874
:101A8000FFF70EFE184B186070BD154C174BA36482
:101A9000F5E7174B124C23606360A360E36023619A
:101AA0006361A361E36123626362A362E362236310
:101AB0006363A363E36323646364A364E3642365F0
:101AC0006365A365E36523666366A366E3662367D0
:101AD0006367A367E367D9E75344000053460000F8
:101AE000D01800204C330000D02D0020F51A001033
:101AF000491A001007B5604601880A0A0230DF2A39
:101B0000FAD1C9B2820804D3028840880004104385
:101B100000E00068014A5050039007BDD018002033
:101B200051434343C9188C46110C83B24B4310B444
:101B3000040C614392B280B2504362431C041B0CFC
:101B4000001910BC59411304120CC01851416144D2
:101B50007047000010B50148FEF7AAFC9C63001016
:101B6000132310B51C781148FFF7A2FD012C0BD0F0
:101B700004DD010080220E4800F030F80D48FFF728
:101B80008FFD0D4B186010BD094C01005422200040
:101B900000F024F822002000084980320368002B5E
:101BA00000D1016004309042F8D1E7E753460000CD
:101BB000D42D00204C330000D02D0020551B0010E8
:101BC00001480421014B184710100020C1160010D5
:101BD000014B1B681847000010100020014B5B6888
:101BE000184700001010002010B5002800D110BDCB
:101BF00000F0A6F9FBE7C04610B5094A03001468D7
:101C000084B0002C08D0012200910648524203A95A
:101C1000A047012004B010BD00F0DCF90020F9E776
:101C20008C250020E91B001000BEFDE7094A13685F
:101C3000002B06D008491818884208D810601800F0
:101C40007047064B0449181813608842F6D90123DF
:101C50005B42F4E78821002000000420002F0020D0
:101C60008C4610B51100002805D1044B60460CCB02
:101C700000F00CF910BD01204042FBE73864001071
:101C8000013810B51400012807D8080001230022EC
:101C9000210000F081F8200010BD01204042FBE748
:101CA000012040427047C046012040427047C04674
:101CB000012040427047C0460222002382425B411D
:101CC0001800704710B5FFF7AFFFC04670B5FFF7BB
:101CD00047FD074D074EB54209D20024013E761B51
:101CE000B608013608CD01349847B442FAD170BD28
:101CF000946200109C620010030010B508001100EF
:101D00001B68984710BDC046F8B5437D07000D001D
:101D10001600002B38D0002A1ADD0B780A2B18D0B9
:101D20000020012E09D0012421006B5C01340A2B14
:101D30001AD0B442F8D1864203DD311A3B68281824
:101D40009847AD19013D2B780D3B5A4253413B75E5
:101D5000F8BD037D002BE3D102210E483B68984774
:101D6000012EEED00120DEE76B1E5B5C0D2BE0D078
:101D7000884203DA091A3B68281898470548022167
:101D80003B6898472000D4E7036811002800984773
:101D9000DEE7C04694640010F0B54646D6464F468E
:101DA000C0B582B090461C0006000D00FFF78EFA09
:101DB00000232F4A12184B41002B02DA01222D4B2F
:101DC00052422D4908008A4604F01EFA81466B1CD7
:101DD00003D1300003F056FD0500002C27D0274F1B
:101DE000274B1C68002C18D04346002B21D1254BD3
:101DF000984602E02469002C0FD02368002BF9D00C
:101E000043461B68002B01D09C42F3D120002A00DE
:101E10003100B8472469002CEFD14B46002B23D169
:101E2000280002B0E0BCBA46B146A846F0BD164F45
:101E3000D6E7144B984602E02469002CEDD02368C5
:101E4000002BF9D043461B68002B01D0A342F3D1ED
:101E50002A0031002000B8476B460A222000DA71C0
:101E6000D91D093AB847E7E7504604F0A5F9D7E786
:101E700040420F00FFFFFF7F78160020091D001071
:101E80007821002084210020F91C0010F0B54F4675
:101E90004646D6469946194BC0B5924607000E00F5
:101EA0009846174D43461C68002C03D114E0246962
:101EB000002C11D02B68002B01D0A342F7D1A368CE
:101EC000002BF4D03100380098470028EFDDE0BC4B
:101ED000BA46B146A846F0BD0A4B5B6A994508D898
:101EE000084A926A524502D302204042EFE79945E0
:101EF000FAD101200021FFF7F3F9D3E77821002080
:101F000084210020004005400A4A1368002B05D1B7
:101F10000CE01A001B691032002B07D08342F8D165
:101F2000002902D118691060196170470029FCD09E
:101F30001060FAE77821002010B500F07BFA10BDA0
:101F4000F0B5CE46474680B583B06B460600DD1D32
:101F50002870FFF7BBF90023194A12184B41002BD8
:101F600002DA0122174B524217490800894604F051
:101F70004BF9164B80461C68002C14D0144F02E01D
:101F80002469002C0FD02368002BF9D03B68002B6C
:101F900001D09C42F4D1200001222900FFF7B4FEB9
:101FA0002469002CEFD14346002B05D1300003B04B
:101FB000C0BCB946B046F0BD484604F0FDF8F5E7B0
:101FC00040420F00FFFFFF7F78160020782100209D
:101FD0008421002070B5040003F054FC01230100AB
:101FE000050001222000FFF7D7FE084B1C68002CDB
:101FF00006D06368002B05D098472469002CF8D1DF
:10200000280070BD2469002CF3D1F9E77821002065
:102010007047C0460022014B1A707047F92E00200D
:102020004B790020FF2B0BD18B79002B08D1CB797A
:10203000012B05D1082A03D9024B8A7809301A707E
:102040007047C046F92E00200120704710B50129C5
:1020500013D112495379107909781B0203430020E8
:10206000994200D010BD5378012B08D0022BF9D132
:10207000642200210020FFF7BDFA0120F2E7D378A7
:1020800091781B021943480ADB0501D40120404224
:102090007F238A05D20F1940FFF734FBF92E002069
:1020A00000487047606500109446012310B501296F
:1020B0000AD152780023012A06D162461179527959
:1020C00012020A43072A01D0180010BDA633614648
:1020D000024A01F063FA0300F6E7C046B864001054
:1020E0000123037000487047986400104B780A7809
:1020F0001B0213438A7810B512041A43CB781B06CF
:1021000013439622D200934200D010BD002201203A
:1021100011004042FFF7F6FA024B1860024B1960BB
:102120007047C046182100201C21002010B5024B2A
:102130001878FEF7CDFA10BDFA2E0020154B70B5B9
:102140001A68002A22D0EFF3108172B610680028B6
:10215000FCD0BFF35F8F00200F4A596010701B68DE
:10216000BFF35F8F186081F31088002400250B4EA9
:102170003078FEF7A1FA002804D1002400252900B8
:10218000200070BD3078FEF7A3FAF8E7FA240025A6
:10219000A400ECE7B0250020FB2E0020FA2E002042
:1021A00070B5050000200E0001F010FB002834D0AF
:1021B000002001F021FB00282FD0FFF787F8002333
:1021C000174A12184B41002B16DB164C200004F066
:1021D0001BF8002821D0002001F0F8FA00280FD1C8
:1021E00001200021404200F00FFD03256D42200038
:1021F00003F0E2FF280070BD01220B4B5242E4E7DE
:10220000002001F0F9FA0028EAD02900320000206D
:1022100001F0FCFA051EEAD1E7E703256D42E9E784
:1022200040420F00D82E0020FFFFFF7F10B5FFF7C0
:102230004DF800230D4A12184B41002B02DA0122FF
:102240000B4B52420B4803F0DFFF00280CD001205B
:102250000021404200F0D8FC002001F01BFB0028C8
:10226000F5D1044803F0A8FF10BDC04640420F005E
:10227000FFFFFF7FD82E0020F8B5CE46474680B539
:1022800005000C00FFF722F80023344A12184B41D6
:10229000002B02DA0122324B5242324908008846B2
:1022A00003F0B2FF002803D1C0BCB946B046F8BD68
:1022B000002001F08BFA002848D00026002C41DDD8
:1022C000294B994613E0A919002001F01FFB0700D4
:1022D00001200021404200F097FC002001F0DAFAD2
:1022E000FEF7F4FF204BF61903C3B4422ADD0020A9
:1022F00001F02CFBA71B0200B84200DD3A00002AC7
:10230000E1D101200021404200F07EFC002001F0DC
:10231000C1FA002001F05AFA002813D0002001F081
:1023200015FB0028E1D1FEF7D1FF4B460F000CCB87
:10233000002184460D4812184B419F4202D8D4D147
:102340009445D2D9404603F037FFADE70020002185
:10235000054B03C3404603F02FFFA5E740420F00A3
:10236000FFFFFF7FD82E0020C818002020A1070003
:1023700030B5002185B0284803F02EFF00281CD17D
:10238000264B1A68002A16D0EFF3108172B6106837
:102390000028FCD0BFF35F8F0124214859600278E8
:1023A0001B68D2B20470BFF35F8F0020186081F306
:1023B0001088002A17D005B030BD0120002140420E
:1023C00000F022FC002001F017FA0500124803F08B
:1023D000F3FE002DEFD0134B1B68002BEBD0124AFD
:1023E00010689847E7E7FEF75DFD0400FEF76EFF13
:1023F000FA220023920012184B41002B02DA01222C
:102400000A4B52420121029100210191084920000A
:102410000091FEF74BFDCEE7D82E0020B02500201E
:10242000FB2E0020182100201C210020FFFFFF7F31
:102430003D210010D02310B51B0684B01C68FEF7A8
:1024400031FDFEF731FEA04202D0002004B010BDE5
:10245000284B002100201B7801F060FD264803680E
:10246000002B44D00120FEF7B5FAFF23234C24496A
:1024700020701840FEF744F920780121FEF70AF990
:102480000520FEF72DF9002824D1082200211D483F
:10249000FFF79EFBFEF706FD0400FEF717FFFA228A
:1024A0000023920012184B41002B02DA0122164B36
:1024B0005242012102910021019114492000009112
:1024C000FEF7F4FC0028C0DB11480121FFF71CFDDA
:1024D0000120BBE70120FEF79BF801000948FEF749
:1024E000D9FA002205200B49FEF734F9ECE7FEF794
:1024F000B5FAB7E714670010D82E0020FA2E002096
:1025000071230010B0250020FFFFFF7F3D21001048
:10251000201000202D21001000487047FC6500109D
:1025200000487047A865001010B5040016480378ED
:10253000002B20D0002C06D1144B15484380063BBD
:10254000FF3B038010BD052C1CD8124BA400E4589F
:102550000F480123811C013C04E001330A80023151
:10256000142B0CD0E25C002AF7D1C022DBB25B0056
:1025700092001343E5E7112100F016F8DAE7CA23C9
:102580009B00DEE70020DDE7E02E002009040000CC
:10259000502100209065001010B5024800F0F4F8BA
:1025A00010BDC046C825002030B5012900D1BBE0D0
:1025B000744B01391A78121114003034092A00DDE5
:1025C000B5E00470012900D1DAE00F221C78224026
:1025D00014003034092A00D9ACE04470022900D13B
:1025E000CEE05A789446121114003034092A00DDE6
:1025F000A3E08470032900D1C2E064460F22224088
:1026000014003034092A00D99AE0C470042900D19A
:10261000B6E09A789446121114003034092A00DD8D
:1026200091E00471052900D1AAE064460F222240FE
:1026300014003034092A00D988E04471062900D1F9
:102640009EE03025AC46DC7822119444092A00DD56
:102650007FE062468271072900D191E00F2222407B
:1026600014003034092A00D977E0C471082900D158
:1026700086E03025AC461C7922119444092A00DDFD
:102680006EE062460272092900D179E00F222240F1
:1026900014003034092A67D844720A2900D16FE047
:1026A0003025AC465C7922119444092A5FDC6246ED
:1026B00082720B2964D00F22224014003034092A80
:1026C00059D8C4720C295BD03025AC469C792211B4
:1026D0009444092A02DD0735AC46944462460273ED
:1026E0000D294DD00F22224014003034092A01D97F
:1026F0003732140044730E2942D0DA7913111C00CA
:102700003034092B01DD37331C0084730F2937D097
:102710000F2313401A003732092B01D830331A0027
:10272000C27310292CD010300023037030BD373213
:10273000140046E7373214004FE73732140058E7E9
:102740003732140061E7373214006AE73732140079
:1027500073E70735AC4694447BE73732140084E7CF
:102760000735AC4694448CE73732140094E70735BC
:10277000AC4694449BE737321400C4720C29A3D1B1
:102780004018D1E7C825002010B588B004000D22FC
:1027900000216846FFF71CFA0D22002104A8FFF76C
:1027A00017FA4B236A466846137004A90D2203F0FA
:1027B000FBFC1521082220006944FFF70FFA08B03E
:1027C00010BDC046F8B500F047F90C23194DFF22A3
:1027D000AB6705201849FDF7BDFF184C40220021CA
:1027E0002000FFF7F5F94027002301262121144A94
:1027F00066702783A260136063545F31618445393A
:102800006354104A10496360E2602787A1620B603D
:102810006362E26203F0E8FC80239B052E64EB64B4
:1028200090230A4A0120EA508022094B5202DA64BE
:10283000F8BDC04600001150150500208C21002075
:1028400084001050000110508000105010D0010082
:102850000020115010B501210520FDF71BFF10BD10
:1028600010B500220021024800F016F910BDC04644
:10287000AC210020044B1970002904D08021902342
:10288000024A8902D1507047F52E002000201150D5
:102890000B785B0600D070474B78052BFBD18A780C
:1028A000014B1A60F7E7C04600001150F8B5CE465C
:1028B0004746C87880B58007830F1800012B61D088
:1028C0008B780A799C464B797F211B0213435B0569
:1028D0005E0D63461940DC094B001A191F00634660
:1028E0002F4D5201AA1893700123634053700023A7
:1028F0001683D370D076B146CA00012C31D0294E50
:1029000092198E01B446AC446646B2601360002949
:1029100031D0254BC900C91871604B463F339B0924
:10292000022836D09B0121483919026849016918EB
:102930000E00CA601E49D31803608B422BD83B1986
:102940005B01ED18EB7E1B499B064A401343802236
:10295000120613436A6813600120C0BCB946B04632
:10296000F8BD154E92198E01B446AC446646B2626B
:102970001360002908D1002364012C1963600F4BF8
:10298000E360E9E70020E8E70A4BC900C918716273
:10299000C3E7DB01C7E7FEF7DDFEF268CFE7C0461D
:1029A0008C21002084001050040010509425002039
:1029B000FF0F105000001050800010500001105008
:1029C00010B503F011FC10BD7F2010B50840400089
:1029D000C90940181100044A400180181A0000F08B
:1029E0005BF8012010BDC0468C2100207F23180019
:1029F00000B5084083B00B4204D14B424B41084A1A
:102A0000013393668022C9094000064B40184001FB
:102A10000021C018120103F017FC03B000BDC0462E
:102A2000002011508C2100207F22130010B50B4094
:102A30000A4200D110BDC9095B005B1804485B0164
:102A4000C018002300220349C37003F0FDFBF1E727
:102A50008C210020FFF7FFFF80220A4B520410B5A3
:102A60001A60094B09491A6010000B689843FBD1A2
:102A70008022002152010648FFF7AAF80922054BDF
:102A80005A6710BD00E0004000F0004008C0004060
:102A90000000105000001150002310B5C382013314
:102AA000828283760161040003F0C6FB002804D013
:102AB00080219023074A8902D150200003F0ACFB0B
:102AC000002802D00123237710BD200003F0ACFBC7
:102AD000FAE7C046002011507047C0467047C04614
:102AE00000207047002070477047C0467047C046BE
:102AF0007047C0467047C046024B5878431E984105
:102B0000C0B27047301C0020024B18784007C00F3D
:102B10007047C046301C0020F0B5D6464F464646AA
:102B2000C0B52E4B814698461B788A46FF2B4ED166
:102B300000293ED0002154222948FFF749F80022FD
:102B4000284C294B20001A70FDF788FF274B1C608A
:102B5000274C2000143CFDF78FFF200001F0DAFD28
:102B6000244B254D1C60254B002B04D02800FFF77B
:102B7000B7FA234B1860002400232A78214F204EF7
:102B80000FE0336862019B18002B12D05B68002BAA
:102B90000FD098472A780134E4B2511C2300A14297
:102BA00009DBA242EDD89B1A5B01DB195B68002BA5
:102BB000EFD100200CE042464B4651464846137088
:102BC000FFF700FE0028F4D04846FFF743FE01203F
:102BD000E0BCBA46B146A846F0BDC046541000203D
:102BE000301C0020281C0020F62E0020841C002011
:102BF0004C100020881C0020F42E0020E120001042
:102C0000481B0020B8660010F0B5DE4657464E4619
:102C10004546E0B5C64B91B002931B78FF2B00D11F
:102C20003BE1C44BC44E1F00C44B0DAC0193C44BDD
:102C3000009335686A69EFF3108172B61368002B50
:102C4000FCD0BFF35F8FA9612800210001F098FB41
:102C50006A69AB69BFF35F8F0021116083F310884D
:102C6000002800D119E16378082BE2D89B00FB58BB
:102C70009F466368002BDCD0A0689847D9E77F2285
:102C80002179AE4D0A405300EB189846C80980449C
:102C900040460123303005799D43057105790333A2
:102CA0009D430571002A00D1FEE04346A54A1B7DE5
:102CB0001278934200D3EDE0A34A5B011568ED184A
:102CC000002D00D1E9E0A36862792078AD69A847BA
:102CD000AFE79E4B1A78002A00D1DEE01A78013A5D
:102CE0001A701B78002BA4D10122944D01212B785E
:102CF000042013432B703423EA5C8A43EA54EA5CD1
:102D00008243EA540133EA5C8A43EA54EA5C824330
:102D1000EA54237800209B4600F09AFC6022237935
:102D20001A40602A00D1EEE0402A00D1F4E0DB0630
:102D3000DB0E012B00D111E1022B00D1C6E0002BEC
:102D400000D0E0E0202A00D11CE2002A00D0DAE026
:102D50006379092B00D9D6E07D4A9B00D3589F4662
:102D6000764D2B78DB0700D463E7FFF7C3FE60E7FF
:102D7000019BDB78DB0700D45BE76068FFF7AEFE02
:102D800057E76E4D2B78DB0700D452E72878000711
:102D9000C00FFFF7ADFE4CE72378694999468B4693
:102DA000684B694998468A4639001A784746002395
:102DB000B04600254E46894610E053461B686A011E
:102DC0009B18002B00D175E0DB68300098473A78FB
:102DD0000135EDB2511C2B008D4243DC9542ECD302
:102DE0009B1A5B015B44EFE7237857499946554BA3
:102DF0008A4698463100BB464E461A780025002385
:102E0000474689460FE053461B686A019B18002B12
:102E100054D0DB68300098473A780135EDB2511C48
:102E20002B008D4206DC9542EDD39B1A009A5B0184
:102E3000D318EEE7019D542200212800FEF7C8FEBA
:102E40001022FF214348FEF7C3FE28002022FF2165
:102E500014304E465F46FEF7BBFE00F0EFFBFFF777
:102E600045FEE6E6354D542200212800FEF7B0FE6F
:102E70001022FF21281DFEF7ABFE28002022FF2193
:102E8000143046464F46FEF7A3FE00F0D7FB2379E9
:102E9000AB70CEE6501C984213DA11B0F0BCBB46C2
:102EA000B246A946A046F0BDA3686279207800F03A
:102EB000E3FBBEE646464F46204DE6E74E465F46FC
:102EC000CBE71F4D9B1A5B015D19FCE67023217A4D
:102ED0000B4218D1C80982460F330B405B0098465D
:102EE0001848EB1853441B7D00789946834268D2FA
:102EF00015485B01006881469944002A00D163E1CE
:102F00004B46002B6AD120780021FFF76FFD80210E
:102F10002078FFF76BFD8CE60F4800F099FB01214C
:102F200058460EAAFFF7C0F8002800D081E6EAE76D
:102F30005410002010660010881C0020301C002057
:102F4000B8660010F42E0020481B0020F62E00204A
:102F500034660010341C0020A9200010237A228936
:102F60000F2BD0D8FF231340CF4AEB181B791578CD
:102F7000AB423ED3691C9942C5DB5D1BCB4B6D0157
:102F8000ED18686900F064FB012158466B690EAAD0
:102F90009847002800D04CE66022150023791D4098
:102FA0001A42B0D163790A3B012BACD800F050FB38
:102FB00063790A2B00D199E158460EA900F0D8FA9E
:102FC00037E6431C4B4500DAF9E04B461B1A5B0120
:102FD0009946B6488144002A00D1F5E04B4658692D
:102FE00000F036FB4B46012158465B690EAA984714
:102FF0009AE7AF4A5B011568ED18002DC1D182E751
:10300000A37999466B789945D6D06B78002B00D080
:1030100035E14B466B70002B00D12DE1484601385D
:10302000C0B2FFF77DFA002800D17EE14378079314
:10303000022B00D079E10122C179B1468B114911EF
:1030400013400A40302112015B0113432A78A8463D
:103050008A4313432B7009239A4682445646BA4644
:10306000C37882781B021343C31805938E4B0493D5
:103070008E4B08938E4B09938E4B0A93059BB3425C
:1030800000D855E1737801220B2B03D13378F27805
:10309000F6187378042B00D044E1059B00279B1B96
:1030A0009BB20693049B0B921D78002303931BE0B5
:1030B000099A7B011568ED18002D00D132E131002D
:1030C00058462B69069A98478446082803D9069AD9
:1030D000824200D313E1049B01371D78FFB26B1CC1
:1030E00003979F4200DD1DE1BD42E1D8039B5D1BBC
:1030F000089B6D015D19E2E76B780CAA0232137030
:10310000584601230EA900F049FA92E5E088030A27
:10311000C0B20F2B00D9F6E667499A008A58974645
:103120000EA800F09BFA5846A179FFF799FB0222FE
:103130002B7813432B707CE5E388012B00D0E2E66B
:1031400008222B78584693430EA92B7000F010FAF2
:103150006FE5022029780CAB9A1C8B068908DB0FDF
:1031600001400B431380584602230EA900F016FAC3
:103170005FE5E388012B00D0C5E608222B781343D6
:103180002B7019E7237A22890F2B00D9BBE6FF2386
:103190001340EB181D79444B1B789D4228D2444BB9
:1031A0006D011B685D19002D00D1ACE6686900F067
:1031B0004FFA012158466B690EAA9847B4E6002AD7
:1031C00000D0A0E600239946627902201300039202
:1031D0008343012B15D0002A00D094E62B004344F2
:1031E000534430331B790CAA9B07DB0F0232B9E73B
:1031F0005A1CAA4200DA86E6ED1A2C4B6D01ED1836
:10320000D4E7E388002B12D1029B1878039B012B93
:1032100023D0FFF7EBFB43460221EB185344303336
:103220001A790A4301211A711A790A431A714B4615
:10323000002B00D1FDE4586900F00AFA4B46012149
:103240005B690EAA58469847002000F001FA352322
:10325000EB5CDB0700D5ECE4AEE6FFF7E5FB4346AD
:103260000221EB18534430331A798A431A711A79C0
:1032700003998A431A71DAE7FFF738FC9CE60021CC
:103280005846FFF7F7FA5846FFF79AFBAB7807491D
:103290000393054B049198461A7800230449AA46E3
:1032A00005911D001BE0C046F42E0020B8660010FA
:1032B000481B0020441C00205C660010059B6A012E
:1032C0001B689B18002B4CD0DB6858469847434638
:1032D0001A780135EDB2511C2B008D422DDC954240
:1032E000ECD39B1A049A5B01D318EDE70CAB9A1C44
:1032F000584601230EA9157000F050F999E40B9A75
:10330000012A4ED0002A3CD00023B07804E00133DB
:10331000DBB20F71934234D2C118C9B241440D7966
:10332000FF2DF4D04E464546574600236B70EAE524
:103330004E465746FFF7D8FB3EE65546542200213D
:103340002800FEF745FC1022FF21281DFEF740FC57
:1033500028002022FF211430FEF73AFC039BAB70BB
:1033600057E65546FAE7FEF79BFE021E00D1CAE576
:10337000D37891781B020B4358460EA900F00EF942
:10338000D2E565463B002A0031000A9800F06AFE4B
:10339000049B039A1B7876190133934200DB6DE698
:1033A000C0E7174B29699942AED1079AACE7FFF7FE
:1033B00097FB021E00D1A6E5584613780EA900F02F
:1033C000EDF8B1E52189FFF7AFF8021EF4D19AE5D7
:1033D000022B0FD0FFF786FB021EC9D193E5FFF742
:1033E0009BF8021E00D18EE5122358460EA900F06C
:1033F000D5F899E5FFF794F8021EB9D183E5C046E8
:10340000493A0010F0B54F464646D646C0B50C00C6
:1034100016001F0082B0002A3AD0702398461D4B38
:10342000002599461C4B9A461AE04B461B78200013
:1034300001935346997800F0DBFD00281CD0210051
:103440000198FFF733FA002816D0A378DA09012A89
:1034500019D00A9A01351370B54219DA2378E418A5
:103460006378052B08D1E3789B079B0FBB4203D100
:103470004246A3781A42D8D0002002B0E0BCBA4637
:10348000B146A846F0BD0B9A01351370B542E5DB95
:103490000120F2E754100020301C0020702270B58B
:1034A0008B780C001A4201D0002070BD064B200022
:1034B0001D78064B997800F09BFD0028F4D0210080
:1034C0002800FFF7F3F9F0E754100020301C00202B
:1034D0007F20074B10B51A680840CB0934334000F1
:1034E000C018044B1100C01800F03EFD10BDC046CE
:1034F000841C0020301C00207F20074B10B51A6868
:103500000840CB0934334000C018044B1100C018E8
:1035100000F052FD10BDC046841C0020301C00206D
:1035200070B57F24C80984460C400F486400041914
:10353000644430342079C00701D5002070BD0B48A9
:103540000125007884462079284320716046FFF7E2
:103550003BFA0028F2D10122237993432371237986
:10356000033293432371E8E7301C002054100020FD
:1035700070B5094C0600082220000D00FEF72EFB56
:1035800000238021E360A3602B7830009943002260
:103590000023FFF7C5FF70BD101C0020F0B5C64624
:1035A000244C170080460822200000B50D001E00A4
:1035B000FEF714FB0023A760E381EB79AA791B02D5
:1035C00013431A1CB34200D9321C96B2A281002BBD
:1035D0000CD0002E15D0002F2AD0402E1AD82378D8
:1035E00096B27F2B1BD80021134A0EE080212B7846
:1035F0000022994340460023FFF792FF80BCB84663
:10360000F0BD7F2300222178994333004046FFF725
:1036100087FFF3E74022237896B27F2BE3D9064C4D
:10362000320039002000FEF7D9FA80212200ECE7B1
:103630000020E3E7101C0020D01B002010B514224E
:1036400000210248FEF7C4FA10BDC046101C00203D
:10365000014B18617047C046101C002010B5054C86
:10366000010008222000FEF7B9FA0023A360E360FE
:1036700010BDC046101C002070B5374C1D002378CB
:103680000600DA09C9098A4210D00020002D00D0B6
:1036900070BD21003000FFF7FBF82369002B03D039
:1036A00022000321300098470120F1E77F2B06D844
:1036B000A0680028ECD02A002849FEF78FFAE2899A
:1036C000A1685219E38892B24919E281A16093423C
:1036D00014D03F2D12D9A389981A051C80B2402816
:1036E00028D82078ADB27F2826D800219A4230D041
:1036F0001A4A2B003000FFF713FFC9E72369002B9C
:1037000005D02200022130009847002808D08021EF
:1037100023780022994330000023FFF701FFB7E729
:1037200000213000FFF762F930008021FFF75EF9D9
:103730000120ADE74025D4E79A4207D0074C2A0084
:103740002000FEF74BFA80212200D2E780210022E0
:10375000CFE70022CDE7C046101C0020D01B002080
:1037600070B50400FFF7C8F9002800D170BDFFF75D
:10377000CBF90028FAD1C8236343124A2500D41894
:10378000E1780029F2D010339E18300000F0E2FDFD
:103790003F28EBD90020E178FFF79AFE0028E5D01A
:1037A000300000F0D7FDE1783F2807D9064BEA0149
:1037B000D21800204023FFF7B3FED7E70020FFF721
:1037C0009BFED3E7801600204C1B002010B50400A0
:1037D000FFF792F9002801D1002010BDFFF794F9FE
:1037E0000028F9D1C8226243024B01309B181B7993
:1037F0001840F2E780160020C82310B54343024862
:10380000181800F089FD10BD90160020F8B5C823E7
:1038100043431D4D1033EE18802304005B029A428F
:1038200000D31A4A300092B200F0F8FD0700FFF70B
:1038300063F9002801D13800F8BDFFF765F90028C9
:10384000F9D1C8236343ED18EB78002BF3D0300097
:1038500000F080FD3F28EED90020E978FFF738FE20
:103860000028E8D0300000F075FDE9783F2807D93E
:10387000074BE201D21800204023FFF751FEDAE7A0
:103880000020FFF739FED6E780160020FFFF00007A
:103890004C1B0020F8B50400FFF72EF9002801D1D9
:1038A0000020F8BDFFF730F90028F9D1C823250022
:1038B0005D432B00134E2433F718380000F02CFD25
:1038C0000028EDD075190020A978FFF701FE002827
:1038D000E6D00D4AE3019C1821004022380000F098
:1038E0009DFDA9780300051E07D022000020FFF7E8
:1038F00017FE0028D4D02800D3E70020FFF7FCFDF6
:10390000CEE7C046801600208C1B002070B5C8246E
:1039100044430C4B0500E41880235B029A4200D319
:10392000094A200092B200F041FE0600200000F09B
:10393000F3FC3F2801D8300070BD2800FFF7AAFF34
:10394000F9E7C046A4160020FFFF0000C82310B509
:1039500043430248181800F0FDFC10BDA4160020D7
:10396000F0B50025184C83B0C82200212000FEF7D6
:103970002FF9164B21001D70FF236371E1235B02B9
:10398000A360200008234022A37338310095073B31
:10399000103000F08BFC27000123210020002600BE
:1039A000402278310093B837243000F07FFCC036D5
:1039B0003800FDF753F83000FDF750F8E561276255
:1039C0002663656303B0F0BD80160020CC1B002089
:1039D0000A4B196B1A6A00290CD0002A07D0002262
:1039E000DA615A631A6300221A62012070475A632F
:1039F0001A63FAE7002AF8D0D961F4E780160020AC
:103A000070B5052200210D48FEF7E2F80C4D2B7829
:103A1000DA0707D50B4C9B070CD50121200000F0DD
:103A200099FE70BD0548103000F074FE2B78054CEF
:103A30009B07F2D4200000F06DFEEEE78016002018
:103A4000CC1B0020A4160020F0B54B79070083B0F2
:103A5000022B02D18B79022B03D00024200003B06B
:103A6000F0BD214B1E009B78002BF6D18B780924EA
:103A700033700D784D196B78242B07D00CE02B7820
:103A8000ED181C196B78A4B2242B05D1A242F6D2F2
:103A90000020FFF765FEE1E71A00052B15D0042A88
:103AA000F6D16B790A2BF3D1104B2E7801930133A9
:103AB000009338000223A919023AFFF7A3FC00285B
:103AC000CBD00E34A419A4B2E2E729003800FFF7E6
:103AD000E5FC0028C1D0AB7873702B781C19ED1869
:103AE0006A78A4B2DBE7C046801600208216002068
:103AF00060238C461100127870B513400022202BF1
:103B000008D1324C4B7926000D7924781B022B43C7
:103B10009C4201D0100070BD4B78222B1CD008D8DD
:103B2000202B39D0212BF5D16346012B43D0012224
:103B3000F0E7232BEED16346012B42D0032BF6D1C5
:103B4000234B002BF3D08B78C9780020090219434E
:103B500000E000BF0122DDE76346012B31D0032BDB
:103B6000E5D10125CB788A781B0213431C001D4048
:103B700033000121243318006940347100F0EAFD5C
:103B8000144B002BD3D0012362081A4029000020D7
:103B900000E000BF0122BDE76346012B0BD0032BE1
:103BA000C5D10D4B002BC2D0310000200831FEF7EB
:103BB0009DFA0122AEE7094A0723FFF7EFFC012235
:103BC000A8E7FFF7D5FC0122A4E7C0468016002035
:103BD0000000000000000000ED200010881600200A
:103BE000F8B54746CE4680B5344C1F00E378804692
:103BF0000D008B423BD0A37800208B4211D0C0BC7B
:103C0000B946B046F8BD2E4B002B04D02D4800F02D
:103C100099FB00284FD00020FFF7A2FDA378AB420C
:103C20000AD1294B002B02D0002000E000BF002069
:103C3000FFF730FE002801D00120E0E7234C2000F0
:103C400000F06AFB0028F7D1002FF5D0BB06F3D1B6
:103C5000243C4046A178FFF73BFC0028ECD0002331
:103C600000224046A178FFF75BFC0120C7E7184E11
:103C700014483100BAB200F099FC164B002BC2D0A8
:103C80006379FF2BBFD0002FBDD0BC46B444E146C2
:103C900003E001364E45B6D0637932789A42F8D1C6
:103CA000084800F04FFB0028F3D1064B103B597930
:103CB00000E000BFEDE700E000BFACE780160020A9
:103CC000000000009016002000000000A416002054
:103CD0004C1B0020000000009322F0B5134C85B06F
:103CE000002120009200FDF773FF230020008026B2
:103CF00040270F4D4D337600FF3329300295009356
:103D000000220023002103970196FF3000F0C4F940
:103D10004035201D283400230122002103970295FD
:103D20000196009400F0B8F905B0F0BDCC1D00205C
:103D30004C1D002010B5054C200000F0E1F92000DA
:103D40002538FF3800F0DCF9012010BDF41E0020FA
:103D500070B5084C002520003130FF30257000F090
:103D6000D9FC20000C3000F0D5FC2A23FF33E554A9
:103D7000657170BDCC1D0020F8B5CE46474680B5B4
:103D80004B7980468946FF2B06D12A23374FFF33D4
:103D90007E79FB5C1E4304D00020C0BCB946B0460F
:103DA000F8BD8B780C783B700B790C19002B3CD04C
:103DB000A51803E0AC4238D22378E4186378052BC9
:103DC000F8D1AC4231D221004046FFF767FB002812
:103DD000E2D0A378DB09012B2BD0254800F09AFC18
:103DE0002A23A278FF33FA54637922791B02134302
:103DF0009421204A5B055B0D9B185A4253410220D7
:103E000049007A5C5B00824313437B541849404667
:103E1000083900F0DFF90028BED023780136E41815
:103E20004B461B79F6B2B342C8D84B46E01A80B273
:103E3000B3E7114800F06EFC0F4AA3780C3A5371B7
:103E4000637921791B020B435B050A495B0D5B1803
:103E500059424B41022011795B0081430B430649D3
:103E600000200839137100F07FF9D6E7CC1D00203F
:103E7000FC1E002000FEFFFFD81D002070B51D00B5
:103E80002A2304001F48FF33C35C8B4216D04079BD
:103E9000884201D0002070BD1B4B002B04D02904A8
:103EA0000020090C00E000BF184B200019001E0084
:103EB00000F05AF900281DD00120ECE79A235B009E
:103EC000C35A002B0DD1124B002B04D000201149F6
:103ED000AAB200E000BF20000F4900F07BF90120EA
:103EE000D9E796235B00C1583130AAB2FF3000F009
:103EF0005DFBE8E72A003100200000F003F9012013
:103F0000C9E7C046CC1D002000000000D01D0020E5
:103F1000000000004C1D0020F41E002000B503002E
:103F200083B0002910D00020012B07D80A78002A7E
:103F300004D00C48C2540120012A01D003B000BDB6
:103F40001800FEF7E9FDF9E701236A46002001A900
:103F50009380FEF7E1FD0028F0D00122014B1A709A
:103F6000ECE7C046241C002070B50400237808004C
:103F7000DB070E00DD0F002B16D123785B0701D580
:103F8000280070BD0121494202F036F92378DB0791
:103F9000DD0F002B0AD123785B0708D40422237895
:103FA00001251343237002E00025E9E700253000D6
:103FB00002F002F9E4E7C04670B50D0001210400EB
:103FC0004942280002F018F923785B07DE0F002B26
:103FD00004DB280002F0F0F8300070BD2378DB0726
:103FE00004D40422237893432370F2E70026F0E7F9
:103FF000437902791B021343C2785B0592075B0D7C
:10400000920F022A1AD0032A0BD00020012A07D1CE
:1040100002394A425141104A891899424041C0B27E
:10402000704702394A1E91410C4A49421140802290
:104030000020D200891899424041F1E7022904D0BA
:10404000002040229A424041EAE7054A981843423C
:104050005841C0B2E4E7C046FF03000040FCFFFF48
:1040600000FEFFFF8446881830B51C00814206D24E
:104070004A78052A04D00A7889188842F8D830BDD1
:104080007F228B781A4052006244DB09D4540A78AC
:1040900089188842ECD8F2E7F0B5C64600B582B080
:1040A000904608AA20CA040016886A460120978D07
:1040B0000A00217802408143200011432170320020
:1040C000009329000123083000F0F0F8002D01D002
:1040D000002E07D101200A9B6780636002B080BC7C
:1040E000B846F0BD25001C352800FCF7B7FC424659
:1040F0000023002A01D02B0000256361A561E9E7B8
:1041000001207047F8B502240B7807001C40634279
:104110005C410800124B64421C40124B08300D00F9
:104120001600E41800F0F8F8002807D1002E05D09A
:10413000344203D101242B781C4201D00020F8BD69
:1041400038006978FFF7C4F90028F7D02B781C42B3
:10415000F4D10023002238006978FFF7E1F9EEE797
:1041600040FEFFFFFF01000008239C468C4470B511
:10417000050060460C00664600F0CEF8002803D02B
:10418000012223781A4201D0002070BD28006178F6
:10419000FFF79EF90028F7D062883000616800F0D0
:1041A0003DF901222378134000280CD0002BEBD1DD
:1041B00003006268617804002800FFF7B1F9002865
:1041C000E2D02000E1E7002BDED128006178FFF784
:1041D00093F9D9E7F0B5C64600B58A8906000C0008
:1041E0000B78002A06D101321A4240D0002080BC50
:1041F000B846F0BD9B0734D42B4B40259846082386
:104200009C46A4446046674600F0A4F88542EDD879
:10421000012223781A42E9D130006178FFF758F97A
:104220000028E3D0380000F095F8012223781340ED
:10423000854232D8002BD9D1414662880140131CF7
:104240008A4200D90B1C9BB200226178002B00D05F
:10425000626830001C00FFF763F90028C6D0200018
:10426000C5E7FE2380251B029846AD00C7E74978C5
:10427000FFF72EF90028B9D0012223781A42B5D1D0
:10428000638800226178002B00D062683000FFF75D
:1042900047F90028AAD06088A9E7002BA6D13000F2
:1042A0006178FFF729F9A1E7C0FF0000F0B5C64625
:1042B00000B598466B461E7E802304000F00150053
:1042C0001B029A4226D8C068002803D00121494227
:1042D00001F092FF2069002803D00121494201F03A
:1042E0008BFF42465204F303520C1343E380002336
:1042F000E06863812760A5802381002801D001F058
:104300005BFF2069002801D001F056FF012080BC2E
:10431000B846F0BD0020FAE7038941899C468288AF
:104320009BB288B28C4507D31B1A9BB2101C9A42D1
:1043300000D9181C80B270475100091A5B189BB253
:10434000F4E7C04603894089181A43425841C0B275
:104350007047C046038941899C4682889BB288B2D7
:104360008C4507D31B1A9BB200209A4201D9D21A5E
:1043700090B270475100091A5B189BB2F4E7C0462F
:1043800070B5040000690D00002803D001214942E6
:1043900001F032FF238962899C4698B291B2A388CA
:1043A000944532D3421A92B2002A27D0934208D2BF
:1043B00098422FD3C01A81B261818B4203D8C91AA7
:1043C00089B28B42FBD9E28823685204520C5143D4
:1043D00028005918FDF702FC618901254A1C92B298
:1043E000A38891420DD900225B00D21A2069628114
:1043F000002801D001F0E0FE280070BD0025628990
:1044000092B25B009A42F1DBEFE75A00521A82182F
:1044100092B2C9E7C01881B26181CEE7F0B54646D5
:10442000D6464F46C0B5060000698A46904682B01F
:10443000002803D00121494201F0DEFE3189728952
:10444000B5888BB294B2914255D31F1BBFB2002FD7
:104450004BD0BD4205D2AB4252D25B199CB22F0069
:1044600074814346B8453ED89FB2A54203D8641B29
:10447000A4B2A542FBD9F28831685204500C020064
:1044800062432B1B9BB28918019002009F4225D9E1
:1044900043439BB21A0050469946FDF79FFB504696
:1044A000019A7D1B6419544331684844A2B2FDF758
:1044B00095FB7189B588CB199BB26A00994216D9D0
:1044C0009B1A30697381002801D001F075FE380015
:1044D00002B0E0BCBA46B146A846F0BD50467A43A9
:1044E000FDF77CFBE5E73B1CBEE773899BB26A00E6
:1044F0009342E6DBE4E76F003F1BDF19BFB2A6E79C
:104500005B1B9CB2ABE7C046F8B50400C0680F0067
:10451000002803D00121494201F06EFE258920893F
:104520006189A288ADB283B28EB2884228D39B1B28
:104530009BB29A4209D8E679F60906D1E0680028CC
:1045400001D001F039FE3000F8BD2B0095421CD39C
:104550009B1A9BB29342FBD2E28820685204520C11
:1045600053433900C018FDF739FB6B1C9BB2A2887E
:104570009D4216D9002352009B1A01262381DDE7B4
:104580005100891B5B189BB2D3E7E2882068520474
:10459000520C53433900C018FDF720FB0135A288A7
:1045A000ABB252009342E8DBE6E7C046F0B54E46B8
:1045B0004546DE465746E0B589460500160083B0FD
:1045C000002A6BD0C068002803D00121494201F0C5
:1045D00013FE2F89EA79BBB298466B89AF889BB2EC
:1045E000D2093DD1984562D27A00D31A43449BB296
:1045F000BB4261D2FB1A1A1C9BB2B34200D9321CD7
:1046000096B2F31B01934346F3189BB29B46EA888C
:104610004446B84503D3E41BA4B2BC42FBD25204C7
:104620003B1B570C3A00624328689BB28018B34288
:1046300056D33A0049467243FDF7D0FAAB885B0087
:10464000D84501D89B4502DB5A46D31A9B465B46A8
:1046500037002B81E868002821D001F0ADFD1EE075
:10466000BE422BD298454CD34246D21A92B2790020
:10467000F01B921901908A42C5DBDA1992B2934677
:10468000921B92B29046934240D94346591A8BB23C
:104690009846F3189BB29B46EA88B9E70027380092
:1046A00003B0F0BCBB46B246A946A046F0BD4246A8
:1046B000D31A9BB2BB429DD30027CBE7002FC9D0B2
:1046C000CC46EA88F61B5104490C714398468C4449
:1046D000D919002389B2E1468B463E00019397E742
:1046E0007B439BB21A0049469A46FDF777FA494642
:1046F000019B2868E2187A43514492B2FDF76EFAA2
:104700009CE77900CA1A424492B2B1E79142BCDDFB
:10471000C2E7C04610B50400C068002803D00121DC
:10472000494201F069FD2069002803D00121494276
:1047300001F062FD0023E06863812381002801D03D
:1047400001F03AFD2069002801D001F035FD01207B
:1047500010BDC04670B50400C0680D00002803D02D
:104760000121494201F048FD2069002803D00121C0
:10477000494201F041FD7F21E279EB011140E068FF
:104780001943E171002801D001F016FD20690028CD
:1047900001D001F011FD012070BDC04601230121AF
:1047A000084A1360084A1360084A080013689843CF
:1047B000FBD1074A11608021490013680B42FCD0ED
:1047C0007047C04600E0004000F0004008C00040D4
:1047D00000C0044010B501000148FBF7EDFE10BD1C
:1047E000F22E002000B5054B83B00100009300229B
:1047F0000B230348FBF79CFE03B000BD18640010B8
:10480000F22E0020F0B54E46DE46574645460C00D7
:10481000E0B50B34814685B0162C21D8102900D97B
:10482000D0E000F0A1FA102418230221C94DEB18A2
:104830001A005F68083A974200D172E103227B6850
:10484000B9689343FA68CA6091600121FB185A68FD
:1048500048460A435A6000F08FFA38000830B5E045
:1048600007239C4300D5ADE0A14200D9AAE000F0A7
:104870007BFAFC235B009C4200D2B9E1610A00D1C3
:10488000ABE0042900D980E138239C46A1098C447F
:10489000E0463931CB00082252429446AD4DEB1828
:1048A0009C446346DF68BC4512D00B00032661467A
:1048B0009C4607E0F868002A00DB2CE1814200D129
:1048C0002DE107007B68B3431A1B0F2AF2DD414636
:1048D0002A002F690832974200D10BE103207B6840
:1048E0008343181B0F2800DD86E12A616A610028D6
:1048F000ABDA6A68944680229200934200D316E1B4
:10490000DA08580901238340604618438446D300DF
:104910005B199A686860FB60BA609F60D76001208D
:104920008B10984060455FD8634603420AD1032349
:104930009943634640000431034203D140000431EF
:104940000342FBD00323A8469C4683460D00E800A3
:1049500040440600AA46F3680BE061465A688A4361
:10496000171B1900DB680F2F00DD1BE1002F00DB98
:104970002FE19E42F1D1534601339A4608369B07F8
:10498000E9D1032205E003680838013D834200D0E5
:10499000E2E12A42F7D14246594653688B435360BD
:1049A0005A46520093469A421DD8002A06D11AE070
:1049B0005246043292465A46520093461342F7D06A
:1049C0005546C4E70C234A461360002005B0F0BCEE
:1049D000BB46B246A946A046F0BD80233F224021F7
:1049E00090469B0057E745460322AF687B68934398
:1049F0009A46A34202D31B1B0F2B7EDC564B08208A
:104A00001B6810331E1900F02FFF544B834601938F
:104A10001B68013304D0731E1B18424213401E0052
:104A20003100484600F0ECFE8046431C00D1FDE01A
:104A30005346FB18834200D9F6E0494A11680292B6
:104A4000891911605A46013A834200D139E101982F
:104A50000068013000D13FE14046C31A5B1802995B
:104A60000B6041460723080018400190194200D10D
:104A7000F9E0C446310001331B1A9C4461440391A0
:104A80005B4411405B1A1A4011004846E04616008C
:104A900000F0B6FE431C00D13AE1029B1968891967
:104AA00019604346C21A012092190243AB605A6052
:104AB000AF4213D053460F2B00D811E107220C3B15
:104AC00093437A68024005201A437A60FA185060CE
:104AD00090600F2B00D921E143465A68214B18689A
:104AE000884200D21960204B1868884200D21960B1
:104AF00047469DE06B689C4611E701222100134365
:104B000011433C1979604846AC60636000F034F9A9
:104B1000380008305AE7BA68D060826095E661468E
:104B2000D6E6DF680231BB4200D1D1E686E65A0AFA
:104B3000042A73D9142A00D9A7E010005C325B3034
:104B4000D200AA18083A160092688846964210D1F8
:104B500081E0C04660100020081A00205810002094
:104B6000D8190020001A0020041A002092689642EA
:104B700004D00321506888439842F7D84146D6684C
:104B8000FE60BA60B760D760C9E614295CD95429C1
:104B900000D982E06E239C46210B8C446F31E046A5
:104BA000CB0078E601200E004546091904437460E5
:104BB000B4680835E36038439C60A960E9604860E8
:104BC000CD6048468D60B75000F0D6F83000083010
:104BD000FCE601200C008A1851680834014351603A
:104BE00022684846D3609A6000F0C6F82000EDE6DF
:104BF0002300E108083319E60126391934437C60A3
:104C000029616961CA608A60320002434A60F850D3
:104C1000484600F0B1F838000830D7E69A0910008D
:104C200039323830D2008CE7AF4242D0AF687A6870
:104C300003239A43131BA24202D30F2B00DD5CE730
:104C4000484600F099F8C0E65B239C468C445C31F2
:104C5000E046CB001FE601238010834060461843E6
:104C6000844668608CE733005946434401931340FF
:104C7000CB1A1A4011004846160000F0C1FD431C33
:104C800000D00AE70026019807E7542A2BD81A0B10
:104C900010006F326E30D20053E7AA235B009942B6
:104CA0002BD8DD3B9C46E10B8C447831E046CB00B1
:104CB000F1E52B4A11680292891911605A46013AAE
:104CC000C5E6104200D0C2E652460123A8689219F8
:104CD0001A438046426001E74146019B1960C0E6E5
:104CE00043465860ACE7AA204000824221D8DA0B44
:104CF000100078327730D20023E71A4B994221D83E
:104D00007C239C46A10C8C447D31E046CB00C2E55F
:104D10000198039B083800261818BEE6390048465B
:104D2000083100F037FE029B1968AB6898465A6854
:104D3000D4E60C4882420BD89A0C10007D327C30AD
:104D4000D200FEE6FE237E227F2190469B00A2E554
:104D5000FE227E209200F4E643465B6820E6C046D1
:104D6000D81900205405000010B5024800F078FD65
:104D700010BDC046D019002010B5024800F072FDE9
:104D800010BDC046D0190020F0B545464E46DE465F
:104D90005746E0B580460D00914683B0002900D10A
:104DA000A3E04C460B34FFF7DFFF162C6CD8102421
:104DB000A1456CD82F00083F796803230E00BB463D
:104DC0009A469E43A6426DDAB819B84A43680192E2
:104DD00000939368009A834200D199E001239A439B
:104DE00094468444624652681A4200D072E05346A8
:104DF000009A9A43B3189C469C424EDD01230B4215
:104E000010D139687B1A5968009353469943521858
:104E100093199A469C4200DCC0E073189A469C4263
:104E200000DCBFE049464046FFF7ECFC8146002825
:104E300000D10CE1594601224B6893430200CB1884
:104E4000083A934200D1D2E0043E242E00D9D3E0A8
:104E500003002A00132E09D92B6803606B68436096
:104E60001B2E00D9CDE00300083208331168196009
:104E70005168596092689A604046290000F08AFDA6
:104E80004046FFF779FF1DE007239C4390D50C2394
:104E9000424613600023994614E06646C368826860
:104EA000D3609A6001227B68311B1340B8190F2927
:104EB00020D833437B604368134343604046FFF789
:104EC0005BFFA946484603B0F0BCBB46B246A946C4
:104ED000A046F0BD01230B42A4D15B461A689B1A81
:104EE000596800935346994397E71100FFF78AFCEE
:104EF0008146E7E73E19234311437B60716031002F
:104F00004368083113434360404600F043FDD5E752
:104F1000534620009A43931910309C4683427ADA14
:104F2000C90700D57EE739687B1A59680093534654
:104F30009943521893199A46984200DD6DE70099FB
:104F4000CB688A68D3609A600B00321F0833994699
:104F5000242A00D990E0132A09D92B688B606B684A
:104F6000CB601B2A00D98CE010310B0008352A6871
:104F70001A606A685A60AA689A600098019B0119D1
:104F80009960534601221B1B13434B604368134037
:104F9000234343604046FFF7EFFE93E7C368826810
:104FA000D3609A6000990F008A68CB680837D36095
:104FB0009A60321F242A15D83B00132A08D92B687F
:104FC0008B606B68CB601B2A36D810310B0008351C
:104FD0002A681A606A685A60AA689A603D00564654
:104FE000009F5FE72900380000F04EFBF6E7032240
:104FF0005B689343F61855E73200290000F044FB44
:105000003AE7AB688360EB68C360242E23D00300CB
:10501000103210332AE7019B391999606346012247
:105020001B1B13434B607B684046134023437B604C
:10503000FFF7A2FEA94645E7AB6800990B61EB6854
:105040004B61242A0FD00B0010351833C0E74046BF
:10505000FFF792FE1EE72B691832036103006969AE
:105060001833416102E72B6900998B610B006A6973
:105070002033CA611835ABE72900180000F004FBA3
:105080007BE7AB6800990B61EB684B61242A03D086
:105090000B00103518336AE72B6900998B610B0000
:1050A0006A692033CA61183561E7C0466010002084
:1050B000F0B5C64600B50C228B5E80460C001A0780
:1050C00054D48021626809011943A181002A00DCBF
:1050D0006DE0A56A002D45D0424640461668002284
:1050E0000260DB0468D400220123E169A8470200C2
:1050F000431C00D16DE00C23E15EA56A490706D58B
:105100006368D21A236B002B01D0E36BD21A002301
:10511000E1694046A8470C23E15E431C4ED143465B
:105120001A681D2A61D8324BD340DB075DD5314B5D
:105130000B40A3810023636023692360C90403D566
:1051400043461B68002B42D04346216B1E6000295A
:1051500008D023004033994202D0404600F01AFCA8
:1051600000232363002080BCB846F0BD0E69002EEA
:10517000F8D00D680022AD1B0E609B0700D14A6974
:10518000A260002D04DCEDE736182D1A002DE9DDB4
:105190002B0032004046E169676AB8470028F3DC1B
:1051A0004022A38913430120A3814042DBE7E26B45
:1051B000002A00DD8DE7D5E7226D9FE70D4B0B4000
:1051C000A3810023636023692360C904BCD52065E3
:1051D000BAE743461B68002B00D18CE71D2B01D09A
:1051E000162BDDD143461E60BCE740230B43DAE7B4
:1051F00001004020FFF7FFFF70B505000C000028FC
:1052000002D0436B002B27D00C22A35E002B11D0C1
:10521000626ED20701D49B050ED528002100FFF74E
:1052200047FF636E0500DB0702D4A3899B050FD5FA
:10523000280070BD0025FBE7A06D00F011FB2800E1
:105240002100FFF735FF636E0500DB07F0D4ECE7C4
:10525000A06D00F007FBEBE700F0F4F8D4E7C046E0
:1052600070B5041E2AD0194B1D68002D02D06B6B3F
:10527000002B17D00C22A35E002B11D0626ED20738
:1052800001D49B0512D528002100FFF711FF636EA2
:105290000500DB0702D4A3899B050BD5280070BD50
:1052A0000025FBE7280000F0CDF8E3E7A06D00F053
:1052B000D7FAE8E7A06D00F0D5FAEFE7044A054910
:1052C000054800F0EBF80500E8E7C046741400203C
:1052D00068140020F95100107814002010B5034A1A
:1052E0000349044800F0DAF810BDC04668140020F5
:1052F000695B00107814002041680B4B10B5040066
:10530000994201D000F030FCA168084B994202D0CC
:10531000200000F029FCE168054B994202D02000F2
:1053200000F022FC10BDC0460C1A0020741A0020A8
:10533000DC1A0020F0B53A4C3A4B3B4A200083B0CF
:1053400000251A600423082200215C30E3602560F8
:105350006560A560656625616561A561FCF738FC3F
:105360002000324F324E334B334958300093236282
:1053700001916162E461A762E66200F06DFACC23FC
:10538000E5502E4B20006367802308220021C430A3
:10539000E550A566E5662567A567E567FCF718FC97
:1053A0002200842320006832E250009A01990433DD
:1053B000E2500433E1500433E750C0300433E65088
:1053C00000F04AFAD0232000E5500433E5500433BE
:1053D000E5501B4A5C33E550583BE2500433E5503E
:1053E0002D300433E550082204330021FF30E5500E
:1053F000FCF7EEFB2000EC23D030E0502000009AB8
:1054000001990433E2500433E15029300433E7506A
:10541000FF300433E65000F01FFA03B0F0BDC04681
:105420000C1A0020441B0020DD52001051560010C1
:105430007D560010E95500101156001009000100BA
:105440001200020070B50500094C200000F008FAB7
:105450006B6B002B05D1074B6B63074B1B68002B55
:1054600003D0200000F0FEF970BDFFF763FFF8E7FE
:10547000D4190020F9520010441B002010B5024836
:1054800000F0EEF910BDC046D419002010B5024856
:1054900000F0E8F910BDC046D4190020F8B5474621
:1054A000CE46884680B58146170000267D68013DBE
:1054B0000ED4BC68A389012B07D90E22A35E013349
:1054C00003D021004846C04706436834013DF1D26D
:1054D0003F68002FEAD13000C0BCB946B046F8BDE5
:1054E000F0B5C64600B51D0086B0984601AB0393E3
:1054F00001235543060017000C9C01910295059568
:105500000493002802D0436B002B52D00C21635E21
:105510000121626E114215D0980432D48021890194
:105520000B43A381274B1A4062660123910410D5D7
:10553000134202D1A3899B0530D5002006B080BC60
:10554000B846F0BD980520D59804E7D5521311420E
:10555000F0D103AA2100300000F070FB0122636E3D
:10556000134000281ED0002B05D1A3899B0502D42F
:10557000A06D00F077F905983900281AFCF73EFA7B
:10558000DCE752131142D8D1E3E7A06D00F068F9CF
:105590000C22A35E626E9904C7D4BFE7A06D00F031
:1055A00061F9CAE7002B02D1A3899B0504D54046C7
:1055B000C4E7FFF747FFA9E7A06D00F053F94046A5
:1055C000BCE7C046FFDFFFFF844600B5054883B057
:1055D0000068009313000A006146FFF781FF03B0E3
:1055E00000BDC0467414002070B50C000E25495F44
:1055F00000F0F2F8002803DB236D1B18236570BD53
:10560000A389024A1340A381F9E7C046FFEFFFFFD9
:10561000F8B516001F000C228B5E05000C00DA05A1
:105620000AD40A4A28001340A38132000E23E15E07
:105630003B0000F0F7F8F8BD00220E23C95E0223FC
:1056400000F0B6F80C22A35EEBE7C046FFEFFFFFC9
:1056500070B50C000E25495F00F0AAF80C22A35E7D
:10566000421C05D08022520113432065A38170BDE6
:10567000014A1340FAE7C046FFEFFFFF10B50E23C3
:10568000C95E00F083F810BDF0B5C6460D001600E7
:1056900000B5884212D9891881420FD98418032A8B
:1056A00056D8731E002E06D0DA438918A418CA5C97
:1056B000E254013BFBD280BCB846F0BD032E0BD8B0
:1056C0000400711E002EF6D000230131EA5CE25482
:1056D00001339942FAD1EEE703242A002100024364
:1056E00003001140144230D10F2E4BD91027BC4675
:1056F0002A003409013C2401A0460419A44414687A
:105700001C6054685C6094689C60D4681032DC60F3
:1057100010336345F3D10F221C000C2310353240A7
:10572000334045441600002BCBD06B5863500431F6
:10573000531A032BF9D8032616409208013A920017
:1057400004350434AD18A418BBE70400711EBBE790
:1057500023000B439B0701D0531EA5E72B1F9C463C
:105760001300051F6246D258EA50043B032BF9D8B8
:105770000322B308013B9B00C91AE41A16400439FE
:10578000043C8EE732000400CFE7C046002370B52A
:10579000064C050008002360FCF782FA431C00D089
:1057A00070BD2368002BFBD02B60F9E7802100201F
:1057B00070B50500080011000022064C22601A0096
:1057C000FCF772FA431C00D070BD2368002BFBD09D
:1057D0002B60F9E78021002070B50500080011005A
:1057E0000022064C22601A00FCF73AFA431C00D053
:1057F00070BD2368002BFBD02B60F9E780210020CF
:10580000002370B5064C050008002360FCF70EFA73
:10581000431C00D070BD2368002BFBD02B60F9E740
:105820008021002070B50500080011000022064C00
:1058300022601A00FCF724FA431C00D070BD2368D4
:10584000002BFBD02B60F9E780210020014B18686A
:105850007047C046741400207047C0467047C04669
:105860007047C0467047C046802310B55B010828CA
:1058700001D1180010BDFFF7E9FF16230360173BA5
:10588000F7E7C046030084469B070BD003000321C3
:1058900002E001330B4206D01A78002AF9D16246A1
:1058A000981A7047030019680C4A0D488A188A43F1
:1058B00002420FD15968094A04338A188A430242C6
:1058C00008D15968054A04338A188A430242F1D044
:1058D00000E001331A78002AFBD1E0E7FFFEFEFE6C
:1058E00080808080F0B5C646050000B5804608205F
:1058F0000C00FFF7B9FF06002800FFF735FA224F2A
:105900003100BB685D6803239D4328001138001BEC
:105910008019FCF773F8441E7443A64207DC00218B
:105920004046FFF76DFFBB685B19984206D04046C2
:10593000FFF722FA002080BCB846F0BD4046614225
:10594000FFF75EFF01300DD001222D1BBB68154310
:105950000E4A5D60136840461B1B1360FFF70CFA8C
:105960000120E8E700214046FFF74AFFBA68831AA2
:105970000F2BDCDD064C05492468001B0860012163
:105980000B435360D3E7C04660100020D8190020B5
:1059900058100020F0B5C6460C00804600B500291E
:1059A00040D0FFF7E1F9210008394E6801253300A6
:1059B0000320AB43CA189446526882432800304003
:1059C000070064488468644500D171E06446626001
:1059D000A41864682C40002F27D10E685E4F891BE5
:1059E0009B198E68BE4256D0CF68F760BE60002C0F
:1059F0001DD062461D434D60136080229200934289
:105A00002DD2DA085C090123A34044682343436094
:105A1000D3001B189A68CB608A609960D1604046B9
:105A2000FFF7AAF980BCB846F0BD002C0FD19B1837
:105A3000624601249268484D1C43CE18AA4259D0B0
:105A40006546ED68D560AA604C603360D5E7624674
:105A500035434D601360802292009342D1D35A0A9D
:105A6000042A3DD89A09140039323834D6008619F0
:105A70003268083E0325964203D14CE09268964274
:105A800003D05068A8439842F8D8D668CE608A60A0
:105A9000B160D160C3E7002C33D1D21860466346B1
:105AA0008068DB681543C36098604D608A50B6E734
:105AB0009A18002F06D10B68C91A8C68D218CB68C7
:105AC000E3609C60012313434B60244B81601B689F
:105AD0009342A4D8224B40461968FFF703FF9EE784
